:100000000C9403060C944A060C944A060C944A0677
:100010000C944A060C944A060C944A060C944A0620
:100020000C944A060C944A060C94A0260C94722751
:100030000C94FC190C944A060C944A060C944A063B
:100040000C944A060C944A060C944A060C944A06F0
:100050000C944A060C94701A0C944A060C944A06A6
:100060000C944A060C944A060C944A060C944A06D0
:100070000C944A060C944A060C944A060C944A06C0
:100080000C944A060C944A060C944A060C944A06B0
:100090000C944A060C944A060C944A060C944A06A0
:1000A0000C944A060C944A060C944A06D407D607C8
:1000B000E107D807DA07DC07DE07E007E307E50713
:1000C000E707F207E907EB07ED07EF07F107F4078A
:1000D0000710071039103910771097100712071200
:1000E000D910071286118611F71107120712001294
:1000F00093119311931193119311931193119311E0
:1001000093119311931193119311931193119311CF
:10011000A411B211B911C011CA1198129812AA12E1
:10012000AA12A112AA12AA12AA1298129812A61220
:10013000AA12AA12A612DF270628F8280628F828ED
:1001400052287528F828CB28DA2835001E001F0011
:100150002000210022002D002E0023002400250075
:10016000260027004C002A002B0014001A0008006B
:1001700015001700810080001C0018000C00120000
:10018000130031004A00296104001600070009002D
:100190000A00BC00BB000B000D000E000F00330076
:1001A00034002800E1001D001B00060019000500B6
:1001B00026022702110010003600370038005200D6
:1001C000E10002530000E000E200E3002C002F00F9
:1001D00030002C00015100000000500051004F0081
:1001E000005C3A003B003C003D003E003F00400008
:1001F00041004200430044004500000000000000B0
:1002000000005F00600061000000000000000000CE
:10021000000052000000000000000000000000008C
:100220005C005D005E000000000000000000500067
:1002300051004F00000000000000000000005900C5
:100240005A005B00000000000000000000000000F9
:10025000000000000000000000000000000062003C
:10026000000000000000000000000100010000008C
:10027000000000000000C25CC35CC45CC55CC65CDE
:10028000C75CC85CC95CCA5CCB5CCC5CCD5CCE5C3A
:10029000CF5CD05CBF5CC05CBB5CBC5CBE5CBD5C6E
:1002A000C15C0000000000000000D15CD25CD35CA7
:1002B000D45C00000000000000000000000000000E
:1002C000000000000000000000000000000000002E
:1002D000000000000000000000000000000000001E
:1002E000000000000000000000000000000001000D
:1002F00000000000000000000000000000000000FE
:1003000000000000000000000000000044454255CD
:10031000473A20656E61626C65642E0A000A00250A
:1003200030313662003A200025303258000A722FF0
:100330006320303132333435363738394142434423
:1003400045460A000A002530325820006B65796264
:100350006F6172645F7265706F72743A20000A0098
:1003600025303258006B6579626F6172645F736526
:10037000745F6C65643A2000290A002575002F001F
:100380002575005D280025640020002564002000FC
:1003900025640020002564007C0025303258006D63
:1003A0006F7573656B6579205B62746E7C782079FC
:1003B000207620685D287265702F61636C293A2071
:1003C0005B006D6B5F776865656C5F74696D655F19
:1003D000746F5F6D6178203D2025640A006D6B5F4E
:1003E000776865656C5F6D61785F737065656420C3
:1003F0003D2025640A006D6B5F74696D655F746FE5
:100400005F6D6178203D2025640A006D6B5F6D6132
:10041000785F7370656564203D2025640A006D6B0C
:100420005F696E74657276616C203D2025640A00F8
:100430006D6B5F64656C6179203D2025640A006DF9
:100440006B5F776865656C5F74696D655F746F5F1E
:100450006D6178203D2025640A006D6B5F776865CB
:10046000656C5F6D61785F7370656564203D202504
:10047000640A006D6B5F74696D655F746F5F6D61B9
:1004800078203D2025640A006D6B5F6D61785F7395
:1004900070656564203D2025640A006D6B5F696EA0
:1004A00074657276616C203D2025640A006D6B5F77
:1004B00064656C6179203D2025640A000A00257579
:1004C00000363A20776865656C5F74696D655F74A6
:1004D0006F5F6D61783A20000A00257500353A207B
:1004E000776865656C5F6D61785F73706565643AA8
:1004F00020000A00257500343A2074696D655F7428
:100500006F5F6D61783A20000A00257500333A204C
:100510006D61785F73706565643A20000A00257527
:1005200000323A20696E74657276616C286D7329A9
:100530003A20000A00257500313A2064656C617923
:10054000282A31306D73293A20000A092D2056617E
:100550006C756573202D0A004D3E004D25643E20CC
:10056000003F007365742064656661756C740A00F1
:10057000433E200077686572652064656C74613A5B
:1005800020637572736F723D25642C2077686565F2
:100590006C3D25640A53656520687474703A2F2F8A
:1005A000656E2E77696B6970656469612E6F72671D
:1005B0002F77696B692F4D6F7573655F6B65797305
:1005C0000A000A092D204D6F7573656B6579202D22
:1005D0000A4553432F713A09717569740A313A0912
:1005E00064656C6179282A31306D73290A323A09C1
:1005F000696E74657276616C286D73290A333A09E5
:100600006D61785F73706565640A343A0974696D69
:10061000655F746F5F6D61780A353A097768656563
:100620006C5F6D61785F73706565640A363A09774F
:100630006865656C5F74696D655F746F5F6D617827
:100640000A0A703A097072696E742076616C756579
:10065000730A643A097365742064656661756C7425
:10066000730A75703A092B310A646F776E3A092D57
:10067000310A706775703A092B31300A7067646F00
:10068000776E3A092D31300A0A7370656564203D32
:100690002064656C7461202A206D61785F737065D9
:1006A0006564202A2028726570656174202F20748B
:1006B000696D655F746F5F6D6178290A003F004D59
:1006C0003E2000433E20004C25640A0074696D659D
:1006D000725F72656164333228293A202530346CA8
:1006E000580A006B6579626F6172645F69646C655A
:1006F0003A2025580A006B6579626F6172645F70F9
:10070000726F746F636F6C3A2025580A00686F73BC
:10071000745F6B6579626F6172645F6C6564732886
:10072000293A2025580A000A092D2053746174754E
:1007300073202D0A004743433A20342E392E3220AD
:100740004156522D4C4942433A20312E382E3073B7
:10075000766E204156525F415243483A206176728C
:10076000350A004F5054494F4E533A204C5546419C
:10077000204D4F5553454B45592045585452414BF8
:10078000455920434F4E534F4C4520434F4D4D410B
:100790004E4420343039360A004255494C443A2000
:1007A00022302E362E3233332D332D673532383703
:1007B000623922202831393A33343A3534204A61BB
:1007C0006E2031342032303139290A005649443AFA
:1007D0002030784645454428596F752920504944B2
:1007E0003A203078303030302869646F626F2920C9
:1007F0005645523A203078303030310A0044455363
:10080000433A204120637573746F6D206B65796284
:100810006F6172640A000A092D2056657273696F50
:100820006E202D0A000A092D20436F6E736F6C65D0
:10083000202D0A4553432F713A09717569740A6D69
:100840003A096D6F7573656B65790A000A092D2089
:100850004D61676963202D0A443A094465627567F2
:10086000204D65737361676520546F67676C650A17
:10087000583A094D61747269782044656275672041
:100880004D6F646520546F67676C65202D20536839
:100890006F77206B65797072657373657320696E0D
:1008A000206D617472697820677269640A4B3A0935
:1008B0004B6579626F61726420446562756720548C
:1008C0006F67676C65202D2053686F77206B6579A3
:1008D0007072657373207265706F72740A4D3A0995
:1008E0004465627567204D6F75736520546F676747
:1008F0006C650A563A0956657273696F6E0A533A07
:10090000095374617475730A433A094163746976D3
:1009100061746520436F6E736F6C65204D6F646505
:100920000A46312D4631303A09537769746368209D
:10093000746F204C6179657220302D392028463142
:1009400030203D204C30290A302D393A095377693F
:1009500074636820746F204C6179657220302D3982
:100960000A4553433A0953776974636820746F20CA
:100970004C6179657220302028616C7465726E61FB
:100980007465206B65792031290A47524156453AF2
:100990000953776974636820746F204C61796572BC
:1009A00020302028616C7465726E617465206B65FF
:1009B000792032290A50415553453A094A756D70DC
:1009C00020746F20426F6F746C6F616465722028B1
:1009D0005265736574290A003F000A6D6F7573656F
:1009E0003A206F66660A000A6D6F7573653A206F6C
:1009F0006E0A000A6B6579626F6172643A206F66F5
:100A0000660A000A6B6579626F6172643A206F6EE4
:100A10000A000A6D61747269783A206F66660A008E
:100A20000A6D61747269783A206F6E0A000A646513
:100A30006275673A206F66660A000A6465627567C8
:100A40003A206F6E0A000A0A4A756D70696E672057
:100A5000746F20626F6F746C6F616465722E2E2EDE
:100A60002000433E20005B735D004B6579626F613F
:100A700072642073746172742E0A005B575D005BB0
:100A8000535D005B525D005B445D005B435D0004B1
:100A900003300000000C03690064006F0062006F07
:100AA000000000080359006F0075000000040309EE
:100AB0000409025B00030100A0FA0904000001031D
:100AC00001010009211101000122400007058103F5
:100AD00008000A09040100010300000009211101B6
:100AE00000012285000705820320000A0904020094
:100AF0000203000000092111010001222200070564
:100B000083032000010705030320000112011001E7
:100B100000000008EDFE00000100010203010631A3
:100B2000FF0974A1010975150026FF0095207508BD
:100B300081020976150026FF00952075089102C0F4
:100B400005010902A10185020901A1000509190198
:100B5000290515002501950575018102950175038B
:100B600081010501093009311581257F950275083C
:100B7000810609381581257F950175088106050CC8
:100B80000A38021581257F950175088106C0C005C8
:100B9000010980A10185031601002603001A8100C6
:100BA0002A8300751095018100C0050C0901A1017F
:100BB0008504160100269C021A01002A9C02751069
:100BC00095018100C005010906A101050719E02969
:100BD000E7150025019508750181029501750881C9
:100BE0000105081901290595057501910295017501
:100BF0000391010507190029FF150026FF0095063E
:100C000075088100C00011241FBECFEFDAE0DEBFFF
:100C1000CDBF04B603FE27C080912202909123022B
:100C2000A0912402B09125028730904BA740B04B91
:100C3000D1F41092220210922302109224021092F8
:100C4000250214BE84B7877F84BF0FB6F894A89599
:100C500080916000886180936000109260000FBEF8
:100C6000E0E0F8E3099511E0A0E0B1E0E2E5F3E5AA
:100C700002C005900D92A034B107D9F722E0A0E49C
:100C8000B1E001C01D92A232B207E1F70E94BB237E
:100C90000C94A7290C940000FF93EF93E09140017E
:100CA000F0914101309709F00995EF91FF91089576
:100CB000FC018591803011F0EFDFFBCF0895FF2715
:100CC000E0E230E247FF0CC0419597FF09C0EDE23A
:100CD0006095709580959095611D711D811D911D88
:100CE00027FF02C0219530E350E2AA27660F771F45
:100CF000881F991FAA1FA41710F0A41B63955A956B
:100D0000A9F7AA3008F0A95FA05DAF93F39561152C
:100D100071058105910541F7ED3211F4EF93F395DB
:100D2000F21718F43F93F395FBCF8F91B5DFFA9547
:100D3000E1F70895E991F9918591803021F08532AC
:100D400019F0AADFF9CF089520E0E89455915532C3
:100D5000C1F3503311F4689455915A3348F4505309
:100D600090F3220F022E220F220F200D250FF4CF19
:100D70000EF4219589919991533619F3533729F13E
:100D8000533559F1BC0188279927E8945C3621F442
:100D90008991999168945591543639F446EF7EF0D3
:100DA00077FF0DC08FEF9FEF0AC055374AE039F04B
:100DB000583540E121F0523642E009F00895FF93A2
:100DC000EF937DDFEF91FF91B7CFFF93EF93FC019E
:100DD00081918030B9F360DFFBCFFF93EF9368DF41
:100DE000F1CFDF93CF93CDB7DEB72596A3DFCF91B9
:100DF000DF9108950C94130B0C94140B0C940407BE
:100E00000C94100781E0089581E008950E94FA187B
:100E1000811102C00E9468190C94FA060C94FC0619
:100E200008950C94000708950E9486120E941307EB
:100E30002FEF84E39CE0215080409040E1F700C018
:100E400000000C94961AFF920F931F93CF93DF9399
:100E50008C01FC01C081D18180917101811113C08D
:100E60008281882349F0CE010E94B817F82E682F9E
:100E7000CE010E945D1704C0CE010E948C17F82E8F
:100E8000BE018F2D04C0CE010E94B817BE010E9482
:100E9000A808EC01B8010E94FE06882309F44DC1A0
:100EA000C63DFCE5DF0709F4AFC0B0F4C531ECE5A1
:100EB000DE0768F4C230FCE5DF0708F053C0C11557
:100EC0008CE5D80701F1C130DC4529F129C1C631D3
:100ED000DC4509F4FEC024C1CB3D8CE5D80791F177
:100EE00050F4C73DFCE5DF0709F4B1C0C83DDC455F
:100EF00009F4D4C015C1CC3DECE5DE0751F1CD3D80
:100F0000DC45C1F00DC1F8018281882309F415C1C7
:100F10000E94140712C1F8018281882309F40DC1CF
:100F20008091F10181608093F1018CE093E00E9457
:100F3000580603C1F8018281882309F4FEC00E948B
:100F40006819FBC0F8018281882309F4F6C080E0AB
:100F500006C0F8018281882309F4EFC082E00E9474
:100F60006324EBC0F8018281882309F4DEC00E946B
:100F7000FA18811102C00E9468190E940D1990E0B0
:100F80009093140280931302FE01E350FC45E2317A
:100F9000F10530F4EA5AFF4F809113020C944B296B
:100FA00080911302816027C0826025C0846023C0C5
:100FB000806121C080621FC080641DC080681BC02A
:100FC0008460886018C08E7F16C08D7F14C08B7FB0
:100FD00012C08F7E10C08F7D0EC08F7B0CC08F77AC
:100FE0000AC08B7F877F07C087FB222720F991E00B
:100FF000922790FB87F980931302809113020E943D
:1010000011190E94861299C0F8018281882351F03B
:10101000109247010E942E1A90934401809343013D
:1010200082E022C08091470181110FC0809143016D
:10103000909144010E94461A883C910530F486E262
:101040000E94220E86E20E945B0F82E024C0F8011B
:101050008281882361F0109248010E942E1A909399
:1010600046018093450180E20E94C30F66C08091D3
:10107000480181110FC080914501909146010E9465
:10108000461A883C910530F487E20E94220E87E2DE
:101090000E945B0F80E20E94CA0F4FC0F80182815C
:1010A0008111D9CF809148018111F4CF8091450100
:1010B000909146010E94461A883C910558F780E2BB
:1010C0000E94CA0F88E20E94220E88E20E945B0FF3
:1010D00034C00E948918282FF801828140910001B4
:1010E00050910101882379F02A7A91E009F490E087
:1010F00090934201911102C069E201C065E3CA0107
:101100000E949C190AC080914201811102C069E2CB
:1011100001C065E3CA010E949E190E9456180DC0C5
:1011200081E08093470180934801C801DF91CF910E
:101130001F910F91FF900C94020780E0DF91CF91F7
:101140001F910F91FF90089580E090E00895089519
:101150009FE0799FF00111249BE4899FE00DF11D30
:101160001124E60FF11DEE0FFF1FE65BFE4F859188
:1011700094910895880F991FFC01E35EFC4F8591BF
:1011800094910895CF93DF930E94A8080E94730A58
:10119000EC01811520E59207F0F5811530E4930705
:1011A00008F020C1883E910500F5803E910508F0C9
:1011B00096C1883A910570F4853A910508F09AC075
:1011C0008130910509F48BC108F43CC1049708F003
:1011D00086C138C18F3B910508F497C0803C9105CA
:1011E00008F430C1805C9109EFC08115904258F439
:1011F000C11581E0D80708F072C1C03FD10508F4DD
:1012000021C1D0656CC1C11590E3D90708F0E0C0D9
:10121000CE019F70D9C0811525E5920708F043C023
:10122000811534E5930708F0F4C0811542E5940771
:1012300008F5C11581E5D80708F0D7C02C2F237019
:1012400081E090E002C0880F991F2A95E2F79C6820
:101250009E0174E0369527957A95E1F72370922BDD
:10126000CF70C695C69530E2C39FE0011124C82B0C
:10127000D92B35C1869586959E0123703327C115DC
:10128000D34508F0B7C040E2849FC0011124C1E0FB
:10129000D0E002C0CC0FDD1F2A95E2F78C2B9D2BEE
:1012A000EC01DC681CC1811529E5920778F48115F1
:1012B00038E5930708F0B2C08115964508F0C2C022
:1012C000CF71DD27DC2FCC27D06209C1C1158AE59B
:1012D000D80708F4A8C0CE0190568115904208F0B6
:1012E000B1C08D2F8F710E94F00ADD27D0628F71FF
:1012F000D82BF5C0853A910509F4A7C0863A910527
:1013000009F0A6C0C2E8D0E4EAC0883A910509F421
:10131000A2C0893A910509F4A1C08A3A910509F45D
:10132000A0C08B3A910509F49FC08C3A910509F44D
:101330009EC08B3B910509F49DC08C3B910509F43F
:101340009CC08D3A910509F49BC0803B910509F43E
:101350009AC08E3A910509F499C08F3A910509F423
:1013600098C0813B910509F497C0823B910509F42F
:1013700096C0833B910509F495C0843B910509F41F
:1013800094C0853B910509F493C0863B910509F40F
:1013900092C0873B910509F491C0883B910509F4FF
:1013A00090C0893B910509F48FC08D3B910509F4EC
:1013B0008EC08E3B910509F48DC08A3B910509F4DE
:1013C0008CC0C0E0D4E48BC00E94BA08EC0187C096
:1013D000CE019927D3FF03C0EC01D86C80C0EC018B
:1013E000D06C7DC0DF70D06A7AC0DC2FCC27C16F93
:1013F000D06A75C040E2849FC0011124C1E0D0E0F2
:1014000002C0CC0FDD1F2A95E2F7C82BD92BDA6872
:1014100066C0D82FCC27C46FD06A61C0D82FCC2724
:10142000C06FD06A5CC08C2F8F70806E90E0906A25
:1014300024E0D695C7952A95E1F7CF709C013C2B07
:10144000E9014DC0C0E0D0E04AC0C1E8D0E447C0E7
:10145000C3E8D0E444C0C2EED4E441C0C9EED4E451
:101460003EC0CAEED4E43BC0C5EBD4E438C0C6EB02
:10147000D4E435C0C3EBD4E432C0C4EBD4E42FC011
:10148000C7EBD4E42CC0CCECD4E429C0CDECD4E43C
:1014900026C0C3E8D5E423C0CAE8D5E420C0C2E929
:1014A000D5E41DC0C4E9D5E41AC0C1E2D6E417C032
:1014B000C3E2D6E414C0C4E2D6E411C0C5E2D6E467
:1014C0000EC0C6E2D6E40BC0C7E2D6E408C0CFE641
:1014D000D4E405C0C0E7D4E402C0CAE2D6E4CE0139
:1014E000DF91CF9108958238910549F1B0F48133AD
:1014F000910509F458C048F48932910509F44EC0A9
:101500008A32910509F454C008958533910509F490
:1015100040C08933910599F00895833E910529F1E2
:1015200038F4803E910591F0823E9105A1F0089536
:10153000863E9105F9F0873E910531F1089520919D
:10154000130220FD3AC021FD38C008958091130296
:1015500080FD35C032C08091130282FF32C080917D
:10156000130284FD30C083EE39C08091130282FDE6
:1015700028C0F5CF8091130283FF27C0809113020A
:1015800084FD21C087EE2AC08091130283FD1DC017
:10159000F5CF8091130285FD1AC01BC08091130204
:1015A00085FD17C014C08091130286FD14C015C0BC
:1015B0008091130286FD11C00EC080EE0FC089E33A
:1015C0000DC082EE0BC080E009C086EE07C089E244
:1015D00005C085E303C08AE201C081E390E008957D
:1015E0009091130292FF0DC0282F2871283019F412
:1015F000877F846006C0282F2471243011F48B7FEC
:10160000886093FF0DC0282F2871283119F4877E38
:10161000846106C0282F2471243111F48B7E8861E7
:1016200094FD877E089508950895E2E2F1E041E097
:1016300050E025E02E0F9191A92FA295AF70B0E058
:1016400091963C9191979F70BA0102C0660F771FE7
:101650009A95E2F7CB018095832391968C932E1374
:10166000EACFA3E1B1E041E050E02FE02A0F8D91F5
:10167000E82FE295EF70F0E031A18F70BA0102C05F
:10168000660F771F8A95E2F7CB01962F90959323EB
:1016900091A392A1892B82A32A13E9CFE3E5F1E07C
:1016A000A9E4B1E0119211921D921D9271E0ED3505
:1016B000F707C1F70C9406072F923F925F926F9243
:1016C0007F928F929F92AF92BF92CF92DF92EF92D2
:1016D000FF920F931F93CF93DF9322E2E22E21E03C
:1016E000F22E09E411E0E801CC24C394D12C662445
:1016F00063945E018880998019821882D7018D9148
:101700007D01E82FE295EF70F0E021A18F70A60136
:1017100002C0440F551F8A95E2F7CA01242B21A36A
:1017200022A1742E7094272122A350EA5A95F1F732
:1017300093E1292E91E0392E40E050E0D1015D90F7
:101740001D01252D22952F7030E0D90190962C9106
:101750006881798130E0B52DBF7002C0359527953D
:10176000BA95E2F720FD08C09601042E02C0220FB0
:10177000331F0A94E2F702C020E030E0622B732BA3
:10178000798368834F5F5F4F4F305105B9F691A160
:10179000792271A292A1892B82A32296F5018081E0
:1017A00091818816990641F060925D010E942E1A7F
:1017B00090935F0180935E01F1E0C335DF0709F08C
:1017C00098CF80915D018823B1F080915E01909166
:1017D0005F010E94461A069770F0E3E5F1E0D80138
:1017E0008D919D918D0181939193B1E003351B07FC
:1017F000B1F710925D010E940E0781E0DF91CF9159
:101800001F910F91FF90EF90DF90CF90BF90AF901E
:101810009F908F907F906F905F903F902F90089552
:10182000E82FF0E0EE0FFF1FED5AFE4F808191810F
:101830000895CF92DF92EF92FF920F931F93CF9371
:10184000DF938DE293E00E94580683E5E82E81E065
:10185000F82EC0E0D0E098E2C92E93E0D92E0FE137
:1018600013E0DF93CF93DF92CF920E94F10685E2DF
:1018700093E00E945806F701819191917F010E94A7
:10188000E0189F938F931F930F930E94F1068DE1B1
:1018900093E00E94580621968DB79EB708960FB622
:1018A000F8949EBF0FBE8DBFC530D105D1F6DF9134
:1018B000CF911F910F91FF90EF90DF90CF900895FF
:1018C00090936501809364010895E0916401F09123
:1018D0006501309721F00190F081E02D099480E0BE
:1018E0000895EF92FF920F931F93CF93DF93E091B0
:1018F0006401F09165013097B1F18C010280F381B0
:10190000E02D09958091F10182FF2DC080FF04C078
:101910008CE493E00E945806E80118E086E4E82E83
:1019200083E0F82E8091F10180FF0BC088811F9227
:101930008F93FF92EF920E94F1060F900F900F90FD
:101940000F90115021961111EDCF8091F10180FF80
:101950000AC084E493E0DF91CF911F910F91FF9033
:10196000EF900C945806DF91CF911F910F91FF904B
:10197000EF900895E0916401F0916501309739F09E
:1019800022E0DC012C930480F581E02D0994089578
:1019900020916201309163018217930771F0909357
:1019A000630180936201E0916401F09165013097D9
:1019B00021F00680F781E02D0994089520916001BF
:1019C000309161018217930771F0909361018093C8
:1019D0006001E0916401F0916501309721F000848D
:1019E000F185E02D0994089585B7806885BF85B796
:1019F000806885BF089508950E94F40C0C94FB0C38
:101A000081E008950E94251A0E94150B0C94BA1AC1
:101A1000CF93C82F8091F10182FF1EC080FF04C0C8
:101A200085E693E00E9458068091F10180FF0CC08A
:101A30001F92CF9380E693E09F938F930E94F106CD
:101A40000F900F900F900F908091F10180FF04C0D4
:101A50008EE593E00E9458068C2FCF910C941107CD
:101A60004F925F927F928F929F92AF92BF92CF924E
:101A7000DF92EF92FF920F931F93CF93DF93CDB737
:101A8000DEB72A970FB6F894DEBF0FBECDBF0E9417
:101A90005C0B0E94000D811111C08FEF89838A8336
:101AA0001B820E942E1A8160782F9D838C8349812E
:101AB0005A816B818D810E94EE0D57C097E6C92E29
:101AC00091E0D92E00E010E0AA24A394B12C702E4E
:101AD000802F0E94100C4C01F601419051906F0133
:101AE000482659264114510431F40F5F1F4F053029
:101AF000110569F7D2CF8091F10181FD0E94190C87
:101B000020E030E07501022E02C0EE0CFF1C0A94AA
:101B1000E2F7C70184219521892B09F12E837F8269
:101B20008E209F2091E0892809F490E098870E94F8
:101B30002E1A8160782F9A8789874E815F81688508
:101B40008A850E94EE0D000F111FF801E959FE4F22
:101B500080819181E826F926F182E08206C02F5F1C
:101B60003F4F2F30310571F6C0CF0E94CF1C10912E
:101B700066010E94650C1817D9F00E94650C8093CD
:101B800066012A960FB6F894DEBF0FBECDBFDF9177
:101B9000CF911F910F91FF90EF90DF90CF90BF906A
:101BA000AF909F908F907F905F904F900C94080D16
:101BB0002A960FB6F894DEBF0FBECDBFDF91CF914E
:101BC0001F910F91FF90EF90DF90CF90BF90AF905B
:101BD0009F908F907F905F904F900895CF93DF9369
:101BE000CDB7DEB72B970FB6F894DEBF0FBECDBFD3
:101BF0004F83588769877A878B87DE01119686E045
:101C0000FD0111928A95E9F785E0FE013796019072
:101C10000D928A95E1F749815A816B817C818D8192
:101C20009E810E942D152B960FB6F894DEBF0FBE35
:101C3000CDBFDF91CF910895FC01808191810E94F9
:101C4000F7170895CF93DF931F92CDB7DEB78823A0
:101C500009F42DC1682F8238C1F40E94650C81FD02
:101C600026C169E380910001909101010E949C19B5
:101C70000E9456182FEF81EE94E021508040904052
:101C8000E1F700C0000069E319C0833811F50E9434
:101C9000650C80FD0CC163E580910001909101010C
:101CA0000E949C190E9456182FEF81EE94E021505B
:101CB00080409040E1F700C0000063E580910001A2
:101CC000909101010E949E190F90DF91CF910C9489
:101CD00056188438C1F40E94650C82FDE8C067E4A0
:101CE00080910001909101010E949C190E94561858
:101CF0002FEF81EE94E0215080409040E1F700C04A
:101D0000000067E4DBCF8CEF860F813A70F4862FFA
:101D100069830E94FC1F69818111C9C08091000103
:101D2000909101010E949C19CFCF80E2860F8830EC
:101D300048F4677081E001C0880F6A95EAF70E9455
:101D40008C18C2CF8BE5860F833088F4653A29F072
:101D5000663A31F083E890E005C081E890E002C087
:101D600082E890E00F90DF91CF910C94C80C88E549
:101D7000860F873108F091C0683A09F445C0693A86
:101D800009F445C06A3A09F445C06B3A09F445C004
:101D90006C3A09F445C06B3B09F445C06C3B09F44F
:101DA00045C06D3A09F445C0603B09F445C06E3A40
:101DB00009F445C06F3A09F445C0613B09F445C0D8
:101DC000623B09F445C0633B09F445C0643B09F438
:101DD00045C0653B09F445C0663B09F445C0673B17
:101DE00009F445C0683B09F445C0693B09F445C0A6
:101DF0006D3B09F445C06E3B09F445C06A3B09F4EC
:101E000045C080E090E044C082EE90E041C089EEA1
:101E100090E03EC08AEE90E03BC085EB90E038C099
:101E200086EB90E035C083EB90E032C084EB90E02D
:101E30002FC087EB90E02CC08CEC90E029C08DEC9B
:101E400090E026C083E891E023C08AE891E020C0BA
:101E500082E991E01DC084E991E01AC081E292E03C
:101E600017C083E292E014C084E292E011C085E2E0
:101E700092E00EC086E292E00BC087E292E008C0DA
:101E80008FE690E005C080E790E002C08AE292E031
:101E90000F90DF91CF910C94DE0C603F40F0862FC5
:101EA0000E94551B0F90DF91CF910C94421C0F9014
:101EB000DF91CF910895882309F464C0823879F4C2
:101EC0000E94650C81FF5EC069E3809100019091E2
:101ED00001010E949C190E94561869E310C08338C2
:101EE000B1F40E94650C80FF4DC063E58091000154
:101EF000909101010E949C190E94561863E58091FF
:101F00000001909101010E949E190C94561884388A
:101F100079F40E94650C82FF35C067E4809100016E
:101F2000909101010E949C190E94561867E4E7CF26
:101F30009CEF980F913A10F4682FE1CF90E2980F40
:101F4000983050F4877091E001C0990F8A95EAF7B4
:101F5000892F0E949218D9CF9BE5980F933020F4D7
:101F600080E090E00C94C80C98E5980F973120F42D
:101F700080E090E00C94DE0C803F20F00E94BD1BBE
:101F80000C94421C0895882321F00E948C180C9414
:101F900056180895882321F00E9492180C94561820
:101FA00008954F925F926F927F92BF92CF92DF928D
:101FB000EF92FF920F931F93CF93DF937C01D62F65
:101FC000C72FFC01058102950F70128111110E942B
:101FD000A9180E944F18882379F0112369F080E234
:101FE0008D0F883048F082E00E9438180E944F1808
:101FF00091E0B82EB92601C0B12CCC2EC2948FE04E
:10200000C822D12CF601E859FF4F0C944B298C2F94
:10201000807FCF70882311F0C295C07F112399F083
:10202000CC2309F4CFC180E28D0F883010F0D1119C
:1020300004C08C2F0E948C1803C08C2F0E949C1807
:102040000E945618BFC18D2F0E945B0FCC2309F44C
:10205000DEC180E28D0F883010F0D11104C08C2FCA
:102060000E94921803C08C2F0E94A2180E9456183A
:10207000CEC18C2F807FCF70803211F0C295C07F8F
:10208000DD2319F0D130C9F022C0112371F00023F3
:1020900041F0013031F40E94C2188C2B0E94BC1810
:1020A000B6C10E94C2188C2B46C1002319F0013022
:1020B00009F4ADC10E94BF1818C0112321F00630E9
:1020C00008F0A5C10EC0053008F0A1C10EC0112353
:1020D00051F0002331F0F701858180FF73C18F70CB
:1020E00085838C2F28C101117EC18C2F2AC18C2F92
:1020F00086958695837090E0009719F0019761F0BE
:1021000086C1112321F08D2F9C2F937002C080E097
:1021100090E00E94C80C8BC1112321F08D2F9C2FC1
:10212000937002C080E090E00E94DE0C80C1112319
:10213000F9F0D53F51F0D63F71F0D43FA9F480912A
:102140000D0290910E0281600BC080910D02909162
:102150000E02826005C080910D0290910E02846093
:1021600090930E0280930D028D2F0E94551B1EC06E
:10217000D53F51F0D63F71F0D43FA9F480910D02C4
:1021800090910E028E7F0BC080910D0290910E02F5
:102190008D7F05C080910D0290910E028B7F9093F0
:1021A0000E0280930D028D2F0E94BD1B0E94421CC7
:1021B0003EC18C2F837009F050C0111134C18D2F96
:1021C000829586958770880F880F9D2F9F70492E66
:1021D000512C612C712C082E04C0440C551C661C1B
:1021E000771C0A94D2F7D4FF14C00FE010E020E06F
:1021F00030E0B901A80104C0440F551F661F771FC6
:102200008A95D2F7CB01BA0160957095809590952B
:1022100003C060E070E0CB01C695C695C370D0E006
:10222000C230D10561F0C330D10581F06429752930
:1022300086299729219771F00E947216F4C06429AB
:102240007529862997290E948416EDC00E9472166E
:10225000C301B2010E946016E6C0112319F08C2F51
:10226000817001C08695882309F4DDC08D2F829589
:1022700086958770880F880F9D2F9F70492E512C4F
:10228000612C712C082E04C0440C551C661C771C54
:102290000A94D2F7D4FF14C00FE010E020E030E041
:1022A000B901A80104C0440F551F661F771F8A9506
:1022B000D2F7CB01BA01609570958095909503C0D7
:1022C00060E070E0CB01C695C695C3704C2F50E01E
:1022D0004230510569F04330510589F06429752970
:1022E000862997294130510571F00E9438179BC00B
:1022F00064297529862997290E944A1794C00E944B
:102300003817C301B2010E9426178DC08D2F90E0AF
:10231000FC01E05EF109E531F10508F04FC0E85835
:10232000FF4F0C944B29DF708C2F8F71112331F0EC
:102330000E94BF168D2F0E94C30F69C00E94E01635
:102340008D2F0E94CA0F63C0112341F0053008F0A1
:102350005EC08C2F8F710E94051759C0063008F09F
:1023600056C0F7CF112339F08C2F8F710E94BF1602
:102370004EC01123C9F38C2F8F710E94E01647C005
:10238000112329F08C2F8F710E94AA1640C00E9441
:10239000A5163DC0112349F0CF718C2F0E94BF16A6
:1023A00063E08C2F0E942F1832C081E00E94381801
:1023B000023068F182E00E94381829C0112331F000
:1023C000002391F28D2F0E94220E21C0002399F24A
:1023D000D93349F45FEF67EE73E0515060407040CD
:1023E000E1F700C000008D2F0E945B0F10C04C2F42
:1023F0004F706D2FC7010E94A4080E94D11517C00D
:102400004C2F4F706D2FC7010E94A70810C088E0A5
:10241000C816D10441F05CF0EAE0CE1AD108F2E02F
:10242000CF16D10420F40E94650C0E941107BB2036
:10243000F1F00E942B1880FD1AC0F70112820E9451
:1024400025180E94BF16C7010E9445120E94251838
:10245000DF91CF911F910F91FF90EF90DF90CF9080
:10246000BF907F906F905F904F900C94E016DF913B
:10247000CF911F910F91FF90EF90DF90CF90BF9081
:102480007F906F905F904F9008950F931F93CF931D
:10249000DF93EC01888199812B813C81232BB9F05A
:1024A0009F3F11F48F3F99F0CE010E9423078823AC
:1024B00071F0688179818A810E9402188C010E94E2
:1024C0005C170E945D16B801CE010E94D10FDF910A
:1024D000CF911F910F9108950E94A9180E94B918D9
:1024E0000E9456180E946A1D0E94421C80E090E0E3
:1024F0000E94C80C80E090E00C94DE0C80910001FA
:10250000909101010E94A0190C946C120E949918DC
:102510000C947E120E94F717E92FE295EF70F0E01D
:102520003297EE30F105B0F4E357FF4F0C944B298E
:10253000803F91F018F4803E68F40EC0843F51F45F
:102540000BC0803E48F0813F29F406C093FB8827EA
:1025500080F9089580E0089581E00895CF93DF9396
:1025600000D000D01F92CDB7DEB70F900F900F9024
:102570000F900F90DF91CF910895CF93DF9300D00C
:1025800000D000D0CDB7DEB726960FB6F894DEBFE8
:102590000FBECDBFDF91CF9108951F93CF93DF93EF
:1025A000C091720116E080917301C81799F0D0E0D4
:1025B0001C9FF0011D9FF00D1124EC58FE4F40812F
:1025C000518162817381848195810E94BD1221961F
:1025D000C770E9CFDF91CF911F9108954091A40179
:1025E0005091A5016091A6017091A7018091A80169
:1025F0009091A9010C94BD128091A90182958F70D0
:1026000009F054C08091A601882309F44FC080913D
:102610007201A09173016091A4017091A501409194
:10262000A7015091A801B6E08A1709F43FC090E0D5
:1026300041155105C1F17F3F11F46F3FA1F1B89FE2
:10264000F001B99FF00D1124EC58FE4F2181721357
:102650002AC02081621327C02281211124C0238136
:1026600034812417350710F421503109241B350B10
:10267000283C3105C0F42091A9012F7020612093DE
:10268000A90126E0289FF001299FF00D1124E758A9
:10269000FE4F80818F708061808384EA91E00E9488
:1026A00045120C94CD1201968770BECF0895CF923B
:1026B000DF92EF92FF920F931F93CF93DF93CDB7EB
:1026C000DEB762970FB6F894DEBF0FBECDBF8C01A8
:1026D00085E0F801DE011D9601900D928A95E1F7E3
:1026E000D8014C9111965C91119712966C911297AA
:1026F0001396CD90DC9014973091A4017091A501B0
:102700008091A7019091A801009709F46BC17F3FC8
:1027100019F43F3F09F466C1E090A601EE2009F4E8
:10272000C0C02091A901C816D90628F0F601E81BFF
:10273000F90BCF0104C0809590958C0D9D1DFF2451
:10274000F394883C910578F0F12C207F09F0C6C005
:102750007C2DD98AC88A89890E94AE1284EA91E0C8
:102760000E944512B1C0822F807F09F046C07513C8
:1027700014C0341312C0611110C02F702061209357
:10278000A9010E94EE1284EA91E00E944512809114
:10279000A901D80115968C932EC0CD2819F15F3F61
:1027A00011F44F3FF9F0F62E61111CC080917201B7
:1027B0002091730136E0821709F45AC090E0389FE7
:1027C000F001399FF00D1124EC58FE4F7181571321
:1027D00006C07081471303C07281711103C0019656
:1027E0008770E9CFF62E662309F427C18091A901ED
:1027F00081608093A901F12C20C1751308C03413A6
:1028000006C0611104C08091A901D801C3C04D87E1
:102810005E878D859E856A8B0E948A126A898823CD
:10282000E1F16623D1F12091A901822F82958F7069
:1028300090E0029774F08091A4019091A50198878F
:102840008F831986DB86CA862C87CE0107960E9465
:10285000451286E0F801A4EAB1E001900D928A9554
:10286000E1F70E94FC120E94EE12FF24F394E5C0EF
:102870004D875E878D859E850E94F717292F2295AB
:102880002F7030E0223031050CF0CBC09F7009F082
:10289000C5C0805E883008F4D0C0C8010E944512CF
:1028A000E4CFC816D90608F453C0F601E81BF90BAB
:1028B000CF01883C910508F450C0F12C7C2DD98AB9
:1028C000C88A89890E94AE12E4EAF1E086E0DF015D
:1028D0001D928A95E9F70E94EE12AFC0751314C0DD
:1028E000341312C0611110C08091A901F8018583D1
:1028F000C8010E94451286E0E4EAF1E0DF011D9282
:102900008A95E9F7FE2C99C04D875E878D859E8557
:102910006A8B0E948A126A89882309F4BECF6623D3
:1029200009F4BBCF2091A901822F82958F7090E08E
:1029300002970CF48ECF8091A4019091A5019A8307
:1029400089831B82DD82CC822E83CE0101967FCFCC
:10295000809590958C0D9D1DACCFF62E662309F4C5
:102960009CCF75132EC034132CC02091A90120FDDB
:102970001FC0822F82958F70D9F0D80115962C93A5
:1029800015978F3049F08F5F982F9295907F822F07
:102990008F70892B15968C93C8010E94451286E092
:1029A000F801A4EAB1E001900D928A95E1F793CF86
:1029B00086E0F801A4EAB1E001900D928A95E1F772
:1029C0003CC04D875E878D859E850E948A1281114D
:1029D00040CF8091A90181608093A901C8010E9424
:1029E00045122BC0662309F458CF4D875E878D852D
:1029F0009E850E948A12F82E882309F44ECF86E025
:102A0000F801A4EAB1E001900D928A95E1F784EA19
:102A100091E00E941C0E0E94FC125DCF811139CF03
:102A20000CC0243031050CF038CF9F7009F431CF41
:102A3000F8019581907F09F02CCF8F2D62960FB60B
:102A4000F894DEBF0FBECDBFDF91CF911F910F91E4
:102A5000FF90EF90DF90CF9008951F93CF93DF9377
:102A6000CDB7DEB72C970FB6F894DEBF0FBECDBF43
:102A70004F83588769877A878B879C87CE01079613
:102A80000E945713882369F08F8198852A853B859A
:102A9000232BF1F19F3F09F063C08F3F09F060C025
:102AA00037C086E0FE013796DE01119601900D9247
:102AB0008A95E1F76F817885EA85FB85309741F14A
:102AC0007F3F11F46F3F21F12091730130E0C90184
:102AD0000196877099274091720150E084179507FD
:102AE00009F447C069837A83FD83EC8396E0929F63
:102AF000D001939FB00D1124AC58BE4FFE0131960A
:102B000001900D929A95E1F7809373010E94CD1286
:102B100016E080917201909173018917C1F1189F9D
:102B2000C00111248C589E4F0E945713882379F1BD
:102B3000E09172011E9FF0011124EC58FE4F40817C
:102B4000518162817381848195810E94BD1280913F
:102B5000720190E001968770992780937201D9CF16
:102B60004F81588569857A858B859C850E94BD1229
:102B7000CFCF0E9486121092730110927201E4EA84
:102B8000F1E086E0DF011D928A95E9F7C1CF2C962E
:102B90000FB6F894DEBF0FBECDBFDF91CF911F916E
:102BA0000895EF92FF920F931F93CF93DF938C01C1
:102BB000892B09F46CC0F12CEE24E394E8012196F2
:102BC000F8018491843740F4843008F051C081309A
:102BD00081F0823019F15BC0853709F444C0A8F157
:102BE0009CE7980F903708F052C08F770E945B0FD8
:102BF00041C00E5F1F4FFE01C49180E28C0F8830F0
:102C000048F4C7708E2D01C0880FCA95EAF70E945C
:102C1000AC1814C08C2F0E94220E2DC00E5F1F4FC7
:102C2000FE01C49180E28C0F883058F4C7708E2D5D
:102C300001C0880FCA95EAF70E94B2180E94561880
:102C40001AC08C2F0E945B0F16C00E5F1F4FFE0133
:102C5000C491CC2381F08FE99FE00197F1F700C088
:102C60000000C150F6CF0E5F1F4FFE01F49003C06D
:102C70000E94220E8E018F2D882309F49FCFEFE949
:102C8000FFE03197F1F700C000008150F5CFDF91F0
:102C9000CF911F910F91FF90EF90089508950C949C
:102CA0004E160E944F166093E0017093E1018093ED
:102CB000E2019093E3010C946C1208950C94511668
:102CC0000F931F930091E0011091E1012091E20127
:102CD0003091E301602B712B822B932B1F910F916D
:102CE0000C9451160F931F930091E0011091E10194
:102CF0002091E2013091E301602371238223932329
:102D00001F910F910C9451160F931F930091E001A6
:102D10001091E1012091E2013091E30160277127D8
:102D2000822793271F910F910C94511608950C94AC
:102D300096160E9497166093DC017093DD018093D4
:102D4000DE019093DF010C946C1260E070E0CB0127
:102D50000C9499160F931F9341E050E060E070E0EF
:102D60008A019B0104C0000F111F221F331F8A9587
:102D7000D2F7C901B8011F910F910C9499160F93C6
:102D80001F9341E050E060E070E004C0440F551F25
:102D9000661F771F8A95D2F78091DC019091DD0143
:102DA000A091DE01B091DF018A019B01082B192B54
:102DB0002A2B3B2BC901B8011F910F910C94991636
:102DC0000F931F9341E050E060E070E004C0440FB7
:102DD000551F661F771F8A95D2F7409550956095CD
:102DE00070958091DC019091DD01A091DE01B091A0
:102DF000DF018A019B01082319232A233B23C901F0
:102E0000B8011F910F910C9499160F931F9341E0F5
:102E100050E060E070E004C0440F551F661F771F4C
:102E20008A95D2F78091DC019091DD01A091DE01BD
:102E3000B091DF018A019B01082719272A273B2728
:102E4000C901B8011F910F910C9499160F931F930C
:102E50000091DC011091DD012091DE013091DF0154
:102E6000602B712B822B932B1F910F910C94991631
:102E70000F931F930091DC011091DD012091DE0181
:102E80003091DF0160237123822393231F910F91DF
:102E90000C9499160F931F930091DC011091DD01A2
:102EA0002091DE013091DF0160277127822793276F
:102EB0001F910F910C94991608952FE0929F800D09
:102EC0001124A82FA695A695A695877051E001C05C
:102ED000550F8A95EAF785E0A89FD001112420E0DC
:102EE00030E070E0F901EA0FFB1FE655FE4F40812C
:102EF000CB01022E02C0969587950A94E2F7817065
:102F00009927819584278523842780832F5F3F4FCE
:102F10002530310539F708952FE0929F800D112457
:102F2000682F669566956695982F977085E0689FDF
:102F3000B001112440E050E080E0FA01E60FF71FF5
:102F4000E655FE4F208130E0092E02C036952795C8
:102F50000A94E2F721703327042E01C0220F0A944D
:102F6000EAF7822B4F5F5F4F4530510531F70895E7
:102F7000CF92DF92EF92FF920F931F93CF93DF9345
:102F80008C01C090E001D090E101E090E201F0906E
:102F9000E3018091DC019091DD01A091DE01B0910F
:102FA000DF01C82AD92AEA2AFB2ACFE1D0E0D701DB
:102FB000C6010C2E04C0B695A795979587950A94DF
:102FC000D2F780FF06C0B8018C2F0E94C20801977B
:102FD00021F4219760F780E001C08C2FDF91CF9121
:102FE0001F910F91FF90EF90DF90CF900895CF93B6
:102FF000DF93EC010E94B817BE010E94C208DF9166
:10300000CF9108951F93CF93DF93EB0190917101BE
:10301000992321F0CB010E94F71713C0882349F0B0
:10302000CB010E94B817182F682FCE010E945D17A0
:1030300004C0CB010E948C17182FBE01812F0E9463
:10304000C208DF91CF911F9108958091E401859589
:103050008595859508958091E4018770089598E09D
:10306000899F90011124262B2093E4010C94BF1614
:103070002091E401809582238093E401982F97703A
:1030800069F430E0482F082E000C550B2417350743
:1030900029F08595859585950C94E0160895909175
:1030A000E401977081E009F480E00895E091000167
:1030B000F09101018091F0018083E0910001F09195
:1030C000010190818091EF01892B8083E0910001C3
:1030D000F091010190818091EE01892B8083809194
:1030E000E501882381F0E0910001F09101019081D8
:1030F000892B808380910001909101010E946A19BF
:1031000081111092E50180910001909101010C94D0
:10311000710C8091F00108959091F001892B8093BA
:10312000F001089580959091F00189238093F0013A
:1031300008951092F00108959091EF01892B8093EA
:10314000EF01089580959091EF0189238093EF011D
:1031500008951092EF0108959091EE01892B8093CC
:10316000EE01089580959091EE0189238093EE0100
:1031700008951092EE0108958093E501089510924C
:10318000E50108958091E5010895909341018093B0
:10319000400108958295982F9C7C392F369536955D
:1031A000282F237344E0249FC0011124932F982BD0
:1031B000292F2A7A2695892F8575880F822B0895C5
:1031C0001F93CF93DF931F92CDB7DEB799830E94F1
:1031D000CA18182F9981892F0E94CA18212F30E010
:1031E000322F2227A901482BCA010F90DF91CF91DE
:1031F0001F91089580E090E00E946D2921E08D3EAE
:103200009E4F09F020E0822F089582E090E00C9418
:10321000652983E090E00C94652984E090E00C94AB
:103220006529682F84E090E00C947329AB01BC0100
:103230008FE090E00C948529AB01BC0183E190E024
:103240000C94852960E070E0CB010C941C1960E0BF
:1032500070E0CB010E9416190C9422196DEE7EEFDE
:1032600080E090E00E94912960E082E090E00E947E
:10327000732960E083E090E00E9473291092E001DE
:103280001092E1011092E2011092E30160E084E00B
:1032900090E00E94732960E085E090E00E9473292D
:1032A00060E086E090E00E9473296FEF87E090E095
:1032B0000E94732940E050E0BA0188E090E00E944B
:1032C000852960E08DE090E00E9473290C94271915
:1032D0000C942E19FC01329697E080E0915029F071
:1032E00021912223D9F38F5FF9CF08959C01FC012E
:1032F00032969FEF80E04191461789F09F3F19F485
:10330000411101C0982F8F5F8630A9F79F3F39F098
:10331000F901E90FF11D97FDFA956283089508956B
:10332000FC01329608962081261301C01082319646
:10333000E817F907C1F708950C9476190C949019C1
:10334000029626E0FC0111922A95E9F70895089566
:103350000C94A7190E94A81980911902843049F190
:103360001092F20120E488E190E00FB6F894A8955D
:10337000809360000FBE2093600080E00E941107E0
:103380000E94A81983B7817F846083BF83B781605F
:1033900083BF7894889583B78E7F83BF0FB6F894E8
:1033A000A895809160008861809360001092600011
:1033B0000FBE089508950895CF930E94DA190E94D0
:1033C0005C0B0E94DB19C0E08C2F0E94100C892B33
:1033D00029F4CF5FC530C1F780E001C081E0CF9113
:1033E000089508950C94F1190E9486120E94650CAC
:1033F0000E9411070C94F2191F920F920FB60F92B0
:1034000011248F939F93AF93BF938091F201811109
:1034100013C080910F0290911002A0911102B091FF
:1034200012024196A11DB11D80930F0290931002CC
:10343000A0931102B0931202BF91AF919F918F910F
:103440000F900FBE0F901F90189582E084BD93E0FF
:1034500095BD9AEF97BD80936E0008952FB7F894AD
:1034600080910F0290911002A0911102B09112026E
:103470002FBF08952FB7F89460910F02709110023A
:1034800080911102909112022FBF0895CF92DF9286
:10349000EF92FF920F931F932FB7F89440910F0272
:1034A0005091100260911102709112022FBF6A01B7
:1034B0007B01EE24FF248C0120E030E0C016D10611
:1034C000E206F30610F4415051099A01281B390B0A
:1034D000C9011F910F91FF90EF90DF90CF90089559
:1034E00078941F920F920FB60F9211248F939F938F
:1034F000AF93BF9380910F0290911002A09111029F
:10350000B09112020196A11DB11D80930F029093FC
:103510001002A0931102B0931202BF91AF919F913C
:103520008F910F900FBE0F901F90189581E08093A0
:10353000E00080E28093D8001092C9008FE19EE401
:103540000197F1F700C0000087E090EBDC01809369
:10355000220290932302A0932402B09325029CE0C0
:1035600088E10FB6F894A895809360000FBE909301
:103570006000FFCF0E94FA18811102C00E946819F2
:103580000E9405198093F1010E940D1990E090931B
:103590001402809313020E940919682F70E080E0E2
:1035A00090E00C945E168091F50180FF0BC0609155
:1035B000050185E0689FB0011124759567957595A3
:1035C00067952BC081FF09C06091050185E0689F68
:1035D000B00111247595679520C082FF07C06091E6
:1035E000050185E0689FB001112417C09091F60194
:1035F0009923D1F060910401961788F72091050175
:1036000085E0289F90011124929FA001939F500D67
:10361000112470E0CA010E9437296038710540F416
:103620006115710539F002C065E070E0862F0895DC
:103630008FE7089581E008958091F50180FF08C02B
:103640006091030170E0759567957595679521C048
:1036500081FF06C06091030170E07595679519C000
:1036600082FF04C06091030170E010C09091F601E8
:103670009923C1F0609102019617A0F78091030190
:10368000899FC001112470E00E94372960387105BC
:1036900028F46115710521F0862F08958FE70895AC
:1036A00081E0089561E070E0F4CF803F21F40E9452
:1036B000D31A819504C0813F29F40E94D31A8093C4
:1036C000FA010895823F21F40E94D31A819504C023
:1036D000833F29F40E94D31A8093F9010895893F0A
:1036E00019F40E941C1B05C08A3F31F40E941C1B68
:1036F00081958093FB0108958B3F21F40E941C1B50
:10370000819504C08C3F29F40E941C1B8093FC010E
:103710000895843F21F48091F801816017C0853FAE
:1037200021F48091F801826011C0863F21F48091DC
:10373000F80184600BC0873F21F48091F801886014
:1037400005C0883F31F48091F80180618093F801D1
:1037500008958D3F21F48091F50181600BC08E3F6B
:1037600021F48091F501826005C08F3F29F480919A
:10377000F50184608093F5010895803F39F48091CC
:10378000FA0187FF6CC01092FA0169C0813F29F4E9
:103790008091FA011816BCF362C09091F901823F42
:1037A00029F497FF5CC01092F90159C0833F19F4C6
:1037B0001916CCF354C0893F41F48091FB011816CF
:1037C0000CF04DC01092FB014AC08A3F29F4809151
:1037D000FB0187FF44C0F6CF8B3F39F48091FC0199
:1037E00087FF3DC01092FC013AC08C3F29F48091C4
:1037F000FC011816BCF333C0843F21F48091F8011A
:103800008E7F17C0853F21F48091F8018D7F11C014
:10381000863F21F48091F8018B7F0BC0873F21F414
:103820008091F801877F05C0883F31F48091F801CD
:103830008F7E8093F80113C08D3F21F48091F501B4
:103840008E7F0BC08E3F21F48091F5018D7F05C0E6
:103850008F3F29F48091F5018B7F8093F501809152
:10386000F90181110EC08091FA0181110AC0809185
:10387000FB01811106C08091FC01811102C01092F0
:10388000F60108958091F10183FF7EC08FE993E0F6
:103890000E9458068091F8011F928F938AE993E065
:1038A0009F938F930E94F10688E993E00E94580647
:1038B0008091F901282F082E000C330B3F938F9332
:1038C00085E993E09F938F930E94F10683E993E04B
:1038D0000E9458068091FA01282F082E000C330B05
:1038E0003F938F9380E993E09F938F930E94F1061B
:1038F0008EE893E00E9458068091FB01282F082E45
:10390000000C330B3F938F938BE893E09F938F933F
:103910000E94F10689E893E00E9458068091FC011C
:10392000282F082E000C330B3F938F9386E893E0EB
:103930009F938F930E94F10683E893E00E945806BC
:103940008091F6011F928F9380E893E09F938F936D
:103950000E94F1068EE793E00E9458068091F501DF
:103960001F928F938BE793E09F938F930E94F106B2
:1039700088E793E00E9458068DB79EB74C960FB625
:10398000F8949EBF0FBE8DBF87EF91E00E94BA0CE6
:103990000E942E1A9093F4018093F30108951F93CF
:1039A000CF93DF938091F3019091F4010E94461A26
:1039B000AC019091F601992321F02091060130E0AD
:1039C00006C0209107018AE0289F90011124421728
:1039D000530708F47BC08091F901C091FA01D0919E
:1039E000FB011091FC01811107C0C1116BC0D11105
:1039F00069C0111167C06AC09F3F19F09F5F909323
:103A0000F601181624F40E94D31A8093F9018091CC
:103A1000F90187FF05C00E94D31A81958093F901AF
:103A20001C1624F40E94D31A8093FA018091FA01A3
:103A300087FF05C00E94D31A81958093FA013091C7
:103A4000F9013323E1F02091FA012223C1F045EB83
:103A50003403C0011124892F990F990B009709F4A1
:103A600081E08093F90135EB2303C0011124892FF4
:103A7000990F990B009709F481E08093FA011D16C4
:103A800024F40E941C1B8093FB018091FB0187FFA3
:103A900005C00E941C1B81958093FB01111624F424
:103AA0000E941C1B8093FC018091FC0187FF05C0D4
:103AB0000E941C1B81958093FC01DF91CF911F9187
:103AC0000C94421C9F3F09F099CFA1CFDF91CF9179
:103AD0001F910895E7EFF1E086E0DF011D928A95DE
:103AE000E9F71092F6011092F501089582EC95E045
:103AF0000E9458061F9281E08F931F9285E08F935A
:103B000084E795E09F938F930E94F1060F900F90AA
:103B10000F900F900F900F9008958330E9F128F4E3
:103B2000813061F0823009F10895853009F462C076
:103B300008F449C0863009F474C0089580910701E3
:103B4000262F30E0280F311D2F3F310524F4680F58
:103B50006093070103C08FEF8093070180910701F5
:103B60001F928F938DEA94E072C080910601262FF8
:103B700030E0280F311D2F3F310524F4680F60938A
:103B8000060103C08FEF80930601809106011F920A
:103B90008F938BE994E05BC080910501262F30E084
:103BA000280F311D2F3F310524F4680F6093050164
:103BB00003C08FEF80930501809105011F928F93C1
:103BC00088E894E044C080910401262F30E0280F5B
:103BD000311D2F3F310524F4680F6093040103C0A9
:103BE0008FEF80930401809104011F928F9383E7EC
:103BF00094E02DC080910301262F30E0280F311D65
:103C00002F3F310524F4680F6093030103C08FEF49
:103C100080930301809103011F928F938AE594E0C2
:103C200016C080910201262F30E0280F311D2F3F52
:103C3000310524F4680F6093020103C08FEF809375
:103C40000201809102011F928F938FE394E09F9372
:103C50008F930E94F1060F900F900F900F90089590
:103C6000833081F128F4813059F08230D1F0089509
:103C7000853009F449C0B8F1863009F456C008957A
:103C800080910701681720F4861B8093070102C00A
:103C900010920701809107011F928F9380E394E0B7
:103CA00054C080910601681720F4861B809306019A
:103CB00002C010920601809106011F928F938EE13F
:103CC00094E043C080910501681720F4861B80931F
:103CD000050102C010920501809105011F928F938A
:103CE0008BE094E032C080910401681720F4861BB9
:103CF0008093040102C010920401809104011F927C
:103D00008F9386EF93E021C080910301681720F420
:103D1000861B8093030102C010920301809103016E
:103D20001F928F938DED93E010C080910201681770
:103D300020F4861B8093020102C010920201809140
:103D400002011F928F9382EC93E09F938F930E94C6
:103D5000F1060F900F900F900F900895CF93C82FFA
:103D60001F928F9387EC96E09F938F930E94F106AA
:103D700081E090E0A0E0B0E0BC01CD0104C0660F9E
:103D8000771F881F991FCA95D2F70E945E160F9061
:103D90000F900F900F90CF910C948612CF93873293
:103DA00088F58E3108F00BC18E3009F489C0D8F443
:103DB000873009F461C08B3009F44FC0863009F0B8
:103DC00004C18091F101817F8E7F8093F10185E2B2
:103DD00098E00E94580682E69AE00E94580681E028
:103DE0008093FE0147C0863109F4B2C020F48031CF
:103DF00009F47CC0EAC0893109F493C08B3109F41D
:103E00004BC0E3C0883349F150F4893209F4D9C07A
:103E1000853309F4D6C0873209F4D3C0D6C08334C1
:103E200009F4CFC028F48A3308F4CFC08953CAC03C
:103E3000883409F0CAC00E94861286E49AE00E9483
:103E400058062FEF83ED90E3215080409040E1F73A
:103E500000C000000E94961A0DC08CE498E043C098
:103E60008DE29AE00E9458068091F101897F877F58
:103E70008093F101C1E0AEC08091F101C82FC095DF
:103E8000C170C0FB80F98093F101CC2349F38AE330
:103E90009AE00E9458069EC09091F10191FBCC27B8
:103EA000C0F981E0C827892FC0FB81F98093F10117
:103EB000CC2319F080E29AE029C082E19AE013C095
:103EC0009091F10192FBCC27C0F981E0C827892F9E
:103ED000C0FB82F98093F101CC2319F083E09AE0D2
:103EE00015C083EF99E00E945806C4CF9091F1016C
:103EF00093FBCC27C0F981E0C827892FC0FB83F949
:103F00008093F101CC2351F087EE99E00E9458068E
:103F10008091F10181608093F1015CC08AED99E0AC
:103F2000E2CF86E198E00E9458068DEF97E00E946C
:103F300058068CEC97E00E94580689E997E00E94A9
:103F4000580683E697E00E94580685E397E0CBCFBA
:103F500087E297E00E9458060E94650C1F928F939B
:103F60008DE097E09F938F930E94F106809112015C
:103F70001F928F9386EF96E09F938F930E94F10696
:103F800080910B021F928F9383EE96E09F938F9305
:103F90000E94F1060E943A1A9F938F937F936F932A
:103FA0008CEC96E09F938F930E94F1068DB79EB79D
:103FB00042960FB6F8949EBF0FBE8DBF5BCF8D515A
:103FC00001C080E00E94AE1E55CF88ED99E00E94AE
:103FD0005806C0E08C2FCF91089580E0089580E0CE
:103FE00008958E518A3030F4E82FF0E0E95DFE4FFD
:103FF0008081089580E00895CF93C82F8091FE01BD
:10400000813071F020F0823009F44BC03FC1E09163
:104010000001F09101018081823209F039C107C0AD
:10402000E0910001F09101018081823261F48C2FD6
:104030000E94ED1F811104C08C2F0E94CE1E2FC044
:1040400081E090E02CC08C2F0E94EF1F811126C0D0
:10405000C431E1F070F4CB3081F0C031D1F40E9472
:10406000761D8FEB96E00E94580682E08093FE0159
:1040700015C0C93259F0C83361F485E298E00E9456
:10408000580683EC96E00E94580608C01092FE0184
:1040900001C18DEB96E00E945806FCC081E0817062
:1040A000FBC0C43228F5CE3108F0C1C0CB30A1F13D
:1040B000D0F4C73009F0D0C08EE18093070182E3CD
:1040C000809306018AE08093050184E180930401D6
:1040D00088E08093030188E28093020183E695E003
:1040E0000E945806BCC0C33149F1C431C1F0B4C00C
:1040F000CB3409F4A6C028F4C93289F0C83361F082
:10410000ABC0C13509F49BC0C23509F496C0CE34AA
:1041100009F0A2C06AE09BC00E94761DA0C08091F9
:10412000FD01882319F01092FD0199C080E795E008
:104130000E94580681E08093FE01AEC08AE495E0BB
:104140000E94580688E395E00E9458068091070176
:104150001F928F9385E395E09F938F930E94F106C2
:1041600083E395E00E94580681E295E00E9458069C
:10417000809106011F928F938EE195E09F938F931C
:104180000E94F1068CE195E00E9458068DE095E0D2
:104190000E945806809105011F928F938AE095E056
:1041A0009F938F930E94F10688E095E00E94580645
:1041B00087EF94E00E945806809104011F928F932C
:1041C00084EF94E09F938F930E94F10682EF94E036
:1041D0000E9458068DED94E00E94580680910301DC
:1041E0001F928F938AED94E09F938F930E94F10624
:1041F00088ED94E00E94580681EC94E00E945806F5
:10420000809102011F928F938EEB94E09F938F9386
:104210000E94F1068CEB94E00E9458068DB79EB781
:1042200048960FB6F8949EBF0FBE8DBF18C08C2F56
:104230000E94F11F8093FD0112C061E003C061E0A4
:1042400006C06AE08091FD010E948D1D08C080912A
:10425000FD010E94301E03C081E695E013C08091ED
:10426000FD01882369F01F928F938BE595E09F9362
:104270008F930E94F1060F900F900F900F9004C043
:1042800088E595E00E94580681E006C01092FE0184
:1042900080E002C080E003CFCF91089580910A02B0
:1042A00008959FB7F894109201029FBF9091190250
:1042B000943009F057C09091E9009F703091EC0064
:1042C000232F217030FD20E8922B23E02093E9007A
:1042D0002091EB0020FF43C02091EE0027FF3FC05C
:1042E0002091FF01222321F02091E80025FF37C013
:1042F0001092FF0126E03091E80035FD15C03091A5
:104300001902343061F53091EB0035FD28C02150A1
:1043100021F481E08093FF0122C0EFE9FFE03197B3
:10432000F1F700C00000E7CF8093F1008091E80032
:1043300085FD0AC08091E80080FFFCCF8091E800F5
:104340008E778093E80006C08FB7F89421E0209321
:1043500001028FBF9F709093E90080E008959F70E5
:104360009093E9008FEF08950F931F93CF93DF93FE
:1043700000D01F92CDB7DEB78C010E94732482302B
:1043800011F0843021F584E089831B830A8382E065
:104390008093E9008FEF9091E800815095FD06C071
:1043A00095ED9A95F1F700008111F5CF8091E80025
:1043B00085FF0DC040E050E063E070E0CE01019663
:1043C0000E9490248091E8008E778093E8000F90FF
:1043D0000F900F90DF91CF911F910F910895CF9380
:1043E000DF9300D01F92CDB7DEB7209119022430A1
:1043F00031F523E02983805891099B838A8382E0E9
:104400008093E9008FEF9091E800815095FD06C000
:1044100095ED9A95F1F700008111F5CF8091E800B4
:1044200085FF0DC040E050E063E070E0CE010196F2
:104430000E9490248091E8008E778093E8000F908E
:104440000F900F90DF91CF910895CF93DF93EC0100
:104450000E947324823011F08430F9F482E080935A
:10446000E9009FEF8091E800915085FD06C085ED41
:104470008A95F1F700009111F5CF8091E80085FF52
:104480000CC040E050E066E070E0CE010E94902455
:104490008091E8008E778093E800DF91CF910895B6
:1044A000CF93DF93EC010E947324823011F08430AB
:1044B00039F581E08093E9008FEF9091E800815019
:1044C00095FD06C095ED9A95F1F700008111F5CFA5
:1044D0008091E80085FF14C040E050E068E070E0A3
:1044E000CE010E9490248091E8008E778093E800AE
:1044F00088E0FE01A2E0B2E001900D928A95E1F71A
:10450000DF91CF9108958BE89AE00E945806809140
:104510001802811109C00E9425260E9482268091DE
:10452000E20084608093E200089587E89AE00E94A8
:10453000580610921802089583E89AE00C945806E1
:104540008FE79AE00C9458068BE79AE00E94580691
:104550000C94F419209100022F5F822F62E30E94D5
:104560002B29992319F0209300020895109200023C
:1045700080910102882371F180911902843041F504
:104580008091E9008F702091EC00922F917020FDB6
:1045900090E8892B93E09093E9009091EB0090FFD5
:1045A00014C09091EE0097FF10C09091E80095FF25
:1045B00003C01092F100F9CF9091E80090FF05C080
:1045C0009091E8009E779093E8008F708093E900C7
:1045D00010920102089542E061EC81E00E949F2563
:1045E00042E261EC82E00E949F2542E261EC83E0BE
:1045F0000C949F2580911B02833009F464C030F431
:10460000813071F0823009F49DC008958A3009F438
:1046100089C08B3009F46FC0893009F0ABC020C06D
:1046200080911A02813A09F0A5C08091E800877F45
:104630008093E80080911E0290911F02892B21F443
:1046400068E082E092E003C060E080E090E070E02B
:104650000E94DB248091E8008B778093E800089526
:1046600080911A02813209F085C080911E029091DA
:104670001F02029708F07EC08091E800877F809338
:10468000E8008091E80082FD05C080911902811147
:10469000F8CF70C02091F3008091F20090E0922B4F
:1046A000029749F480911201882329F08091F1004A
:1046B0008B7F813021F48091F10080930A028091F8
:1046C000E8008B7753C080911A02813A09F052C0FA
:1046D00080911E0290911F02892B09F04BC080919E
:1046E000E800877F8093E8008091E80080FFFCCF9E
:1046F0008091120136C080911A028132D9F58091E1
:104700001E0290911F02892BA9F58091E800877FF6
:104710008093E8000E94D42580911C0280931201AE
:104720000C94861280911A02813221F58091E80062
:10473000877F8093E8000E94D42580911D0280939A
:104740000B02089580911A02813AA1F48091E80049
:10475000877F8093E8008091E80080FFFCCF809104
:104760000B028093F1008091E8008E778093E8003F
:104770000C94D425089584B7877F84BF0FB6F8942E
:10478000A89580916000886180936000109260001D
:104790000FBE80E880936100109261000E94FC0CC3
:1047A0000E9425260E9482268091E20084608093E8
:1047B000E20081E591E20E94C51878940E941029D8
:1047C0000E94020D88E091E00E94600C8AE69AE067
:1047D0000E94580680911902853089F486E69AE095
:1047E0000E9458060E94AA1980911702882391F30B
:1047F0000E94DC19882371F30E947A24EBCF0E9477
:10480000300DE8CF0C940424292F332723303105B1
:10481000C9F064F42130310581F02230310509F00E
:1048200049C08BE590E021EB3AE048C021323105E8
:1048300021F12232310571F13DC082E190E02CE09E
:104840003BE03CC099278130910571F02CF4892B15
:1048500089F5EDEAFAE00DC08230910541F0039749
:1048600049F5EFE8FAE005C0E3EAFAE002C0E5E95D
:10487000FAE0849190E09F0121C063307105D0F48B
:10488000660F771FFB01E65CFE4F2081318189E0D6
:1048900090E014C06330710568F4FB01EE0FFF1F58
:1048A000EC5CFE4F20813181FB01EF5CFE4F80818B
:1048B00090E004C080E090E020E030E0FA01318335
:1048C000208308950895CF93C82F0E946224C09337
:1048D0000C02CF91089580911902843011F081E08B
:1048E000089582E0089580910C02811102C00C9419
:1048F0006B24089580E189BD82E189BD09B400FE81
:10490000FDCF8091D8008F7D8093D8008091E0000A
:1049100082608093E0008091E00081FDFCCF0895EB
:10492000CF92DF92EF92FF920F931F93CF93DF937B
:10493000EC018B016A010E94F325811133C0C1147F
:10494000D10439F0F60180819181081B190BC80F41
:10495000D91FE12CF12C0115110519F18091E80006
:1049600085FD16C08091E8008E778093E800C11421
:10497000D10449F0F60180819181E80EF91EF1829F
:10498000E08285E00FC00E94F325882321F30AC04E
:1049900089918093F10001501109FFEFEF1AFF0A8E
:1049A000DACF80E0DF91CF911F910F91FF90EF90D0
:1049B000DF90CF9008952091200230912102261798
:1049C000370748F06115710539F42091E8002E771A
:1049D0002093E80001C0B90140E061157105A9F11B
:1049E00020911902222309F443C0253009F442C062
:1049F0002091E80023FD40C02091E80022FD32C054
:104A00002091E80020FFE9CF4091F3002091F200CF
:104A100030E0342BFC01CF016115710559F02830CD
:104A2000310540F481918093F100615071092F5F4D
:104A30003F4FF1CF41E02830310509F040E02091AF
:104A4000E8002E772093E800C8CF4111C9CF0AC0F3
:104A500080911902882361F0853061F08091E8002F
:104A600083FD0AC08091E80082FFF2CF80E00895C4
:104A700082E0089583E0089581E008952091200266
:104A8000309121022617370748F06115710539F476
:104A90002091E8002E772093E80001C0B901FC01C5
:104AA00020E06115710591F180911902882309F4C4
:104AB00040C0853009F43FC08091E80083FD3DC0CF
:104AC0008091E80082FD2FC08091E80080FFE9CF4F
:104AD0002091F3008091F20090E0922B6115710516
:104AE00059F08830910540F424912093F1003196DB
:104AF000615071090196F2CF21E0089709F020E09A
:104B00008091E8008E778093E800CBCF2111CCCF45
:104B10000AC080911902882361F0853061F080918C
:104B2000E80083FD0AC08091E80082FFF2CF80E0B8
:104B3000089582E0089583E0089581E00895982F14
:104B4000973058F59093E900981739F07091EC0080
:104B50002091ED005091F00003C0242F762F50E0FB
:104B600021FF19C03091EB003E7F3093EB00309174
:104B7000ED003D7F3093ED003091EB0031603093DC
:104B8000EB007093EC002093ED005093F000209127
:104B9000EE0027FF07C09F5FD3CF8F708093E9009F
:104BA00081E0089580E0089580911A0287FF11C086
:104BB0008091E80082FD05C0809119028111F8CF33
:104BC00011C08091E8008B770BC080911902882377
:104BD00049F08091E80080FFF8CF8091E8008E775F
:104BE0008093E80008952091E4003091E50095E677
:104BF0004091EC00842F817040FF22C08091E8003A
:104C000080FD1CC080911902882391F0853091F0BD
:104C10008091EB0085FD10C04091E4005091E500CB
:104C20004217530729F39A01915011F784E0089530
:104C300082E0089583E0089581E0089580E008957A
:104C40004091E80042FFDECF08950E9493260E9423
:104C50009B26E0EEF0E0808181608083E8EDF0E06B
:104C600080818F77808319BCA7EDB0E08C918E7F17
:104C70008C9380818F7E80831092180208950F9309
:104C80001F93CF93DF930E9493260E949B26C8ED2B
:104C9000D0E088818F778883888180688883888145
:104CA0008F7D888319BC1092190210921502109200
:104CB00017021092160200EE10E0F80180818B7F3F
:104CC000808388818160888342E060E080E00E9488
:104CD0009F25E1EEF0E080818E7F8083E2EEF0E0C0
:104CE000808181608083808188608083F8018081F9
:104CF0008E7F8083888180618883DF91CF911F912F
:104D00000F910895E8EDF0E080818F7E8083E7EDDC
:104D1000F0E080818160808384E082BF81E08093C5
:104D200018020C943F26E8EDF0E080818E7F8083AE
:104D30001092E20008951092DA001092E1000895B6
:104D40001F920F920FB60F9211242F933F934F9300
:104D50005F936F937F938F939F93AF93BF93EF93E3
:104D6000FF938091E10082FF0BC08091E20082FFFF
:104D700007C08091E1008B7F8093E1000E94AA220E
:104D80008091DA0080FF1FC08091D80080FF1BC097
:104D90008091DA008E7F8093DA008091D90080FFC5
:104DA0000DC080E189BD82E189BD09B400FEFDCF5F
:104DB00081E0809319020E94832205C019BC1092E1
:104DC00019020E9495228091E10080FF19C0809114
:104DD000E20080FF15C08091E2008E7F8093E200A8
:104DE0008091E20080618093E2008091D80080622F
:104DF0008093D80019BC85E0809319020E94A022FC
:104E00008091E10084FF30C08091E20084FF2CC0DB
:104E100080E189BD82E189BD09B400FEFDCF8091AA
:104E2000D8008F7D8093D8008091E1008F7E8093A1
:104E3000E1008091E2008F7E8093E2008091E200A9
:104E400081608093E20080911502882311F084E054
:104E500007C08091E30087FD02C081E001C083E0CC
:104E6000809319020E94A4228091E10083FF29C04F
:104E70008091E20083FF25C08091E100877F8093CD
:104E8000E10082E080931902109215028091E10006
:104E90008E7F8093E1008091E2008E7F8093E2001C
:104EA0008091E20080618093E20042E060E080E077
:104EB0000E949F258091F00088608093F0000E94FE
:104EC0009C22FF91EF91BF91AF919F918F917F9124
:104ED0006F915F914F913F912F910F900FBE0F9067
:104EE0001F9018951F920F920FB60F9211242F93B7
:104EF0003F934F935F936F937F938F939F93AF9362
:104F0000BF93CF93DF93EF93FF93C091E900CF70EE
:104F10008091EC00D82FD17080FDD0E81092E9008C
:104F20008091F000877F8093F00078940E94B627EC
:104F30001092E9008091F00088608093F000CD2B02
:104F4000CF70C093E900FF91EF91DF91CF91BF91B6
:104F5000AF919F918F917F916F915F914F913F9111
:104F60002F910F900FBE0F901F9018951F93CF9306
:104F7000DF93CDB7DEB7AA970FB6F894DEBF0FBEAA
:104F8000CDBFEAE1F2E088E08E0F9091F1009193BD
:104F90008E13FBCF0E94FA228091E80083FF28C184
:104FA00080911A0290911B02492F50E04A3051051E
:104FB00008F01EC1FA01E556FF4F0C944B298038CA
:104FC00021F0823809F014C108C080911602909136
:104FD0001702992389F082600FC080911E028F70A2
:104FE000873008F005C18093E9008091EB0085FBD4
:104FF000882780F91092E9009091E800977F9093BC
:10500000E8008093F1001092F100D0C0282F2D7F8E
:1050100009F0EEC0882319F0823061F0E9C0809178
:105020001C02813009F0E4C0933009F080E08093E5
:1050300017022EC080911C0281112AC080911E028D
:105040008F702FEF280F263008F0D2C08093E90030
:105050002091EB0020FF1CC0933021F48091EB00E5
:10506000806214C09091EB0090619093EB0021E07E
:1050700030E0A90102C0440F551F8A95E2F7409322
:10508000EA001092EA008091EB0088608093EB00C8
:105090001092E9008091E800877F8093E8000E94E9
:1050A000D425A6C08111A4C010911C021F77809145
:1050B000E3008078812B8093E3008091E800877F74
:1050C0008093E8000E94D4258091E80080FFFCCF07
:1050D0008091E30080688093E300111102C082E0B8
:1050E00001C083E08093190283C08058823008F0A9
:1050F0007FC080911C0290911D028C3D53E095076A
:1051000079F583E08A838AE289834FB7F894DE01D8
:10511000139620E03EE051E2E32FF0E05093570079
:10512000E49120FF03C0E295EF703F5FEF708E2F98
:1051300090E0EA3010F0C79601C0C0968D939D9321
:105140002F5F243149F74FBF8091E800877F80931C
:10515000E8006AE270E0CE0101960E94DB2415C0EF
:1051600060911E0270911F02AE014F5F5F4F0E945F
:105170000224BC01892BE1F19091E800977F909384
:10518000E80089819A810E943E258091E8008B7712
:105190008093E8002DC0803859F58091E800877F22
:1051A0008093E800809115028093F1008091E800DF
:1051B0008E7773CF81111CC090911C029230C0F485
:1051C0008091E800877F8093E800909315020E9409
:1051D000D42580911502811106C08091E30087FDDE
:1051E00002C081E001C084E0809319020E94EB229A
:1051F0008091E80083FF0AC08091E800877F809358
:10520000E8008091EB0080628093EB00AA960FB6D5
:10521000F894DEBF0FBECDBFDF91CF911F910895EF
:10522000CF93809119028823A1F0C091E900CF703B
:105230009091EC00892F817090FD80E8C82B10922E
:10524000E9008091E80083FD0E94B627CF70C093EB
:10525000E900CF910895991B79E004C0991F961732
:1052600008F0961B881F7A95C9F78095089597FBDB
:10527000072E16F4009407D077FD09D00E9451291B
:1052800007FC05D03EF4909581959F4F0895709549
:1052900061957F4F0895EE0FFF1F0590F491E02D6B
:1052A0000994AA1BBB1B51E107C0AA1FBB1FA6176D
:1052B000B70710F0A61BB70B881F991F5A95A9F7BF
:1052C00080959095BC01CD010895F999FECF92BDCE
:1052D00081BDF89A992780B50895A8E1B0E042E031
:1052E00050E00C949929262FF999FECF92BD81BDEB
:1052F000F89A019700B4021639F01FBA20BD0FB614
:10530000F894FA9AF99A0FBE08950396272F0E94EF
:1053100074290E947329252F0E947429242F0C942C
:1053200074290196272F0E9474290C947329DC019B
:10533000CB01FC01F999FECF06C0F2BDE1BDF89AA0
:10534000319600B40D9241505040B8F70895F8944A
:02535000FFCF8D
:10535200E6012808140A321E4E2150222522EF218E
:10536200B42101F6F5F4F1C6959392919094969733
:10537200343530336736660102030405060708092F
:1053820000408522C50B400B1E0BC30ADC0AF50A3E
:00000001FF
