:100000000C94C4040C940B050C940B050C940B0578
:100010000C940B050C940B050C940B050C940B0520
:100020000C940B050C940B050C9469170C94A516F5
:100030000C94A9250C940B050C940B050C940B0542
:100040000C940B050C940B050C940B050C940B05F0
:100050000C940B050C94B5240C940B050C940B0517
:100060000C940B050C940B050C940B050C940B05D0
:100070000C940B050C940B050C940B050C940B05C0
:100080000C940B050C940B050C940B050C940B05B0
:100090000C940B050C940B050C940B050C940B05A0
:1000A0000C940B050C940B050C940B057A087C083A
:1000B00087087E08800882088408860889088B08DB
:1000C0008D0898088F0891089308950897089A0852
:1000D0007C097C09B909B909F809180AFD0BFD0B5F
:1000E0005B0AFD0B580B580B660B660B660B660B19
:1000F000660B660B660B660B660B660B660B660B78
:10010000660B660B660B660B790BA20BA70BAE0B8F
:10011000C60BB414DB148716DB14871627154A1593
:1001200087164F165E16971F971FA91FA91FA01F9E
:10013000A91FA91FA91F971F971FA51FA91FA91FA7
:10014000A51F07634236B79BD8A71A39685618AE61
:10015000BAAB558C1D3CB7CC5763BD6DEDFD753EFC
:10016000F6177231BF000000803F05A84CCDB2D415
:100170004EB93836A9020C50B9918688083CA6AA17
:10018000AA2ABE000000803F35001E001F0020008C
:10019000210022002D002E0023002400250026002F
:1001A00027004C002A002B0014001A00080015003C
:1001B0001700810080001C0018000C0012001300C2
:1001C00031004A00296104001600070009000A00F6
:1001D000BC00BB000B000D000E000F00330034000C
:1001E0002800E1001D001B00060019000500260282
:1001F0002702110010003600370038005200E100DD
:10020000E0000251E300E200E0002C002F0030008B
:100210002C00015100000000500051004F00005C14
:100220003A003B003C003D003E003F0040004100E2
:1002300042004300440045000000000000000000B0
:100240005F0060006100000000000000000000008E
:1002500052000000000000000000000000005C00F0
:100260005D005E0000000000000000005000510032
:100270004F000000000000000000000059005A007C
:100280005B00000000000000000000000000000013
:1002900000000000000000000000000062000000FC
:1002A000000000000000000001000100000000004C
:1002B00000000000C25CC35CC45CC55CC65CC75C7B
:1002C000C85CC95CCA5CCB5CCC5CCD5CCE5CCF5CF2
:1002D000D05C0000000000000000000000000000F2
:1002E0000000000000000000D15CD25CD35CD45C54
:1002F00000000000000000000000000000000000FE
:1003000000000000000000000000000000000000ED
:1003100000000000000000000000000000000000DD
:1003200000000000000000000000000001000100CB
:1003300000000000000000000000000000000000BD
:10034000000000000000000000007267626C696736
:1003500068742064697361626C65205B4545505226
:100360004F4D5D3A207267626C696768745F636FB6
:100370006E6669672E656E61626C65203D2025752D
:100380000A007267626C6967687420656E61626CEE
:1003900065205B454550524F4D5D3A207267626C57
:1003A000696768745F636F6E6669672E656E616208
:1003B0006C65203D2025750A007267626C6967686C
:1003C0007420746F67676C65205B454550524F4DD4
:1003D0005D3A207267626C696768745F636F6E660E
:1003E00069672E656E61626C65203D2025750A0087
:1003F00044454255473A20656E61626C65642E0A39
:10040000007267626C696768745F636F6E666967C4
:100410002E7370656564203D2025640A0072676252
:100420006C696768745F636F6E6669672E76616C6E
:10043000203D2025640A007267626C696768745FFA
:10044000636F6E6669672E736174203D2025640AB0
:10045000007267626C696768745F636F6E66696774
:100460002E687565203D2025640A007267686C69F6
:100470006768745F636F6E6669672E6D6F64652071
:100480003D2025640A007267626C696768745F6367
:100490006F6E6669672E656E61626C65203D202512
:1004A000640A007267626C696768745F636F6E6686
:1004B0006967206570726F6D0A007267626C6967A8
:1004C00068745F696E6974207267626C69676874CA
:1004D0005F636F6E6669672E6D6F6465203D2030C7
:1004E0002E2057726974652064656661756C74208E
:1004F00076616C75657320746F20454550524F4D81
:100500002E0A007267626C696768745F696E69744D
:10051000206565636F6E666967206973206E6F740E
:1005200020656E61626C65642E0A007267626C6998
:100530006768745F696E6974207374617274210AEC
:10054000007267626C696768745F696E69742063C2
:10055000616C6C65642E0A000A0025303136620039
:100560003A200025303258000A722F632030313291
:10057000333435363738394142434445460A000A58
:100580000025303258006B6579626F6172645F7369
:1005900065745F6C65643A20001E140A05783C1E81
:1005A0006432146432147F3F1F00045B735D004BA0
:1005B0006579626F6172642073746172742E0A00CF
:1005C0000631FF0974A1010975150026FF00952069
:1005D000750881020976150026FF0095207508919F
:1005E00002C005010902A10185020901A100050956
:1005F000190129051500250195057501810295014F
:10060000750381010501093009311581257F9502A6
:100610007508810609381581257F950175088106C1
:10062000050C0A38021581257F950175088106C0E1
:10063000C005010980A10185031601002603001AE7
:1006400081002A8300751095018100C0050C090105
:10065000A1018504160100269C021A01002A9C02B1
:10066000751095018100C005010906A10105071952
:10067000E029E715002501950875018102950175AE
:100680000881010508190129059505750191029553
:1006900001750391010507190029FF150026FF00C8
:1006A000950675088100C05B435D005B445D005B9F
:1006B000535D005B575D005B525D0009025B000308
:1006C0000100A0FA09040000010301010009211141
:1006D0000100012240000705810308000A09040106
:1006E000000103000000092111010001228500071B
:1006F00005820320000A0904020002030000000929
:1007000021110100012222000705830320000107B7
:100710000503032000011201100100000008EDFE96
:1007200000000100010203010403300000000C037B
:10073000690064006F0062006F0000000803590048
:100740006F007500000004030904000000000001B0
:100750000101010101010101020202020202020281
:100760000203030303030303030404040404040552
:100770000505050506060606060707070708080813
:10078000080909090A0A0A0A0B0B0B0C0C0C0D0DBF
:100790000D0E0E0F0F0F1010111111121213131452
:1007A00014151516161717181819191A1A1B1C1CC8
:1007B0001D1D1E1F1F202021222223242525262720
:1007C0002728292A2B2B2C2D2E2F2F303132333452
:1007D0003536363738393A3B3C3D3E3F404142435F
:1007E00044464748494A4B4C4D4F50515253555639
:1007F00057585A5B5C5E5F606263646667696A6CE7
:100800006D6E707173747678797B7C7E8081838461
:1008100086888A8B8D8F91929496989A9B9D9FA1A2
:10082000A3A5A7A9ABADAFB1B3B5B7B9BBBDBFC1A8
:10083000C4C6C8CACCCFD1D3D6D8DADCDFE1E4E66F
:10084000E8EBEDF0F2F5F7FAFCFF54494D45523371
:1008500020656E61626C65642E0A007267626C6965
:10086000676874206D6F6465205B4E4F454550523C
:100870004F4D5D3A2025750A007267626C696768A2
:1008800074206D6F6465205B454550524F4D5D3A55
:100890002025750A007267626C6967687420736549
:1008A0007420687376205B4E4F454550524F4D5D26
:1008B0003A2025752C25752C25750A007267626C07
:1008C000696768742073657420687376205B45459A
:1008D00050524F4D5D3A2025752C25752C25750AF3
:1008E000007267626C69676874207261696E626F1A
:1008F0007720736574206873763A2025752C2575EA
:100900002C25642C25750A006801F000B4007800DD
:100910005A0054494D4552332064697361626C65D5
:10092000642E0A000A002530325820006B65796277
:100930006F6172645F7265706F72743A2000290A89
:10094000002575002F002575005D28002564002016
:1009500000256400200025640020002564007C0040
:1009600025303258006D6F7573656B6579205B6259
:10097000746E7C782079207620685D287265702FEF
:1009800061636C293A205B0011241FBECFEFDAE0CF
:10099000DEBFCDBF04B603FE27C080916E029091EA
:1009A0006F02A0917002B09171028730904BA74006
:1009B000B04BD1F410926E0210926F02109270023E
:1009C0001092710214BE84B7877F84BF0FB6F8946B
:1009D000A89580916000886180936000109260000B
:1009E0000FBEE0E0F8E3099511E0A0E0B1E0ECE62D
:1009F000F9E502C005900D92AC33B107D9F722E0BA
:100A0000ACE3B1E001C01D92AE36B207E1F70E943F
:100A10001B0D0C94B42C0C940000FF93EF93E09109
:100A20003C01F0913D01309709F00995EF91FF915C
:100A30000895FC018591803011F0EFDFFBCF089520
:100A4000FF27E0E230E247FF0CC0419597FF09C065
:100A5000EDE26095709580959095611D711D811DE9
:100A6000911D27FF02C0219530E350E2AA27660FAF
:100A7000771F881F991FAA1FA41710F0A41B639546
:100A80005A95A9F7AA3008F0A95FA05DAF93F39536
:100A9000611571058105910541F7ED3211F4EF9370
:100AA000F395F21718F43F93F395FBCF8F91B5DFD1
:100AB000FA95E1F70895E991F9918591803021F057
:100AC000853219F0AADFF9CF089520E0E894559116
:100AD0005532C1F3503311F4689455915A3348F4A8
:100AE000505390F3220F022E220F220F200D250FBC
:100AF000F4CF0EF4219589919991533619F3533718
:100B000029F1533559F1BC0188279927E8945C36BF
:100B100021F48991999168945591543639F446EFAE
:100B20007EF077FF0DC08FEF9FEF0AC055374AE088
:100B300039F0583540E121F0523642E009F008958D
:100B4000FF93EF937DDFEF91FF91B7CFFF93EF938B
:100B5000FC0181918030B9F360DFFBCFFF93EF930D
:100B600068DFF1CFDF93CF93CDB7DEB72596A3DF54
:100B7000CF91DF9108954F925F926F927F928F9203
:100B80009F92AF92BF92CF92DF92EF92FF920F931C
:100B90001F93CF93DF9300D0CDB7DEB7FC01D08099
:100BA000C18083819481892B09F45EC688248A944C
:100BB000C81003C0D81409F457C68F01E080F18033
:100BC0008281882349F0C7010E94C726B82E682F6A
:100BD000C7010E943D2704C0C7010E941127B82EFB
:100BE0002FE0C29EF00111248BE4B89EE00DF11DB0
:100BF0001124ED0DF11DEE0FFF1FE857FE4FE5909C
:100C0000F490F8019281FCECEF16FCE5FF0609F484
:100C1000D0C108F046C084ECE8168CE5F80609F46B
:100C20002AC130F5F5E1EF16FCE5FF0690F422E06D
:100C3000E2162CE5F20608F03BC2E1148CE5F8065A
:100C400009F472C0E1E0EE16ECE5FE0609F4A0C07E
:100C500007C3F2ECEF16FCE5FF0609F4ACC008F0A0
:100C600000C186E1E8168CE5F80609F4D6C2F8C2A0
:100C7000E8ECEE16ECE5FE0609F45CC148F426EC5F
:100C8000E2162CE5F20609F413C108F4FEC032C1E5
:100C9000EAECEE16ECE5FE0609F467C108F457C16C
:100CA00080C124EDE2162CE5F20609F4E2C1C8F495
:100CB000E0EDEE16ECE5FE0609F4B5C148F42EECC5
:100CC000E2162CE5F20609F498C108F491C1A0C11E
:100CD000E2EDEE16ECE5FE0609F4BBC108F4AEC188
:100CE000C3C128EDE2162CE5F20609F47DC248F4F2
:100CF000E6EDEE16ECE5FE0609F430C208F4C4C1D8
:100D00004EC22CEDE2162CE5F20609F4CAC18DEDB7
:100D1000E8168CE5F80609F448C0EBEDEE16ECE5B4
:100D2000FE0609F09DC2B7C1992309F49DC5109232
:100D30009C010E948621FFEF24E38CE0F1502040CB
:100D40008040E1F700C0000081E08093E00080E295
:100D50008093D8001092C900EFE1FEE43197F1F7DB
:100D600000C0000087E090EBDC0180936E0290935E
:100D70006F02A0937002B09371029CE088E10FB6FD
:100D8000F894A895809360000FBE90936000FFCF09
:100D9000992309F469C580916B01816080936B018F
:100DA00080EF93E00E9419055FC5992309F45CC5A3
:100DB0000E94032659C5992309F456C580919301D1
:100DC000817011E081271F928F9389EB93E09F93AD
:100DD0008F930E94B205809193010F900F900F9016
:100DE0000F9080FF28C08E7F8093930140919301E4
:100DF00050919401609195017091960188E090E086
:100E00000E9402298091930181701F928F938AE43E
:100E100093E09F938F930E94B2050E946719FFEFA2
:100E200020E782E0F15020408040E1F700C0000060
:100E30000E94761911C08160809393011F921F93C5
:100E400082E893E09F938F930E94B2058091930173
:100E500086958F730E94BD1B0F900F900F900F907F
:100E600003C5992309F400C580919C01827251F059
:100E70000E94C01BF9C4992309F4F6C480919C0117
:100E80008272B1F30E94CA1BEFC4992309F4ECC427
:100E900020919301221F2227221F30919401432F7A
:100EA000440F842F822B37FB992790F9089618C09E
:100EB000992309F4D9C420919301221F2227221FCC
:100EC00030919401432F440F842F822B37FB9927B5
:100ED00090F9883091051CF4805A9E4F01C0089704
:100EE00068E671E00E948D2C21E0409196016091AE
:100EF00095011DC0992309F4B7C460919501862F0F
:100F000090E0883F910514F4685F01C06FEF809115
:100F10009301881F8827881F90919401392F330FE0
:100F200097FB992790F921E040919601832B0E942D
:100F3000351A9AC4992309F497C460919501862FB4
:100F400090E0089714F06850E2CF60E0E0CF99237A
:100F500009F48AC440919601842F90E0883F91055E
:100F600014F4485F0EC04FEF0CC0992309F47CC401
:100F700040919601842F90E0089714F0485001C0EA
:100F800040E080919301881F8827881F90919401E9
:100F9000392F330F97FB992790F921E06091950144
:100FA000C5CF992309F460C48091970190E0019620
:100FB0000BC0992309F458C48091970190E00197E0
:100FC00097FF02C080E090E08430910514F083E048
:100FD00090E080939701409193015091940160912A
:100FE00095017091960188E090E00E9402293CC42E
:100FF000992309F439C481E04BC0992309F434C41E
:101000000E94A6198250833008F43CCF82E040C091
:10101000992309F429C40E94A6198650823008F445
:1010200031CF86E035C0992309F41EC40E94A61969
:101030008950853008F426CF89E02AC0992309F425
:1010400013C40E94A6198F50853008F41BCF8FE07F
:101050001FC0992309F408C40E94A6198551823043
:1010600008F410CF85E114C0992309F4FDC388E189
:101070000FC0992309F4F8C30E94A6198951893039
:1010800008F400CF89E104C0992309F4EDC383E299
:101090000E94BD1BE9C3992309F4E6C310926D02B7
:1010A000E3C3992309F4E0C382E080936D02DCC3BB
:1010B000992309F4DAC00E94F825811102C00E9428
:1010C000032684E090E00E94DC2890E09093530196
:1010D00080935201F701E350FC45E231F10530F411
:1010E000EA5AFF4F809152010C94A12C8091520139
:1010F000816027C0826025C0846023C0806121C0D8
:1011000080621FC080641DC080681BC084608860CE
:1011100018C08E7F16C08D7F14C08B7F12C08F7E4B
:1011200010C08F7D0EC08F7B0CC08F770AC08B7F65
:10113000877F07C087FB222720F991E0922790FB49
:1011400087F9809352016091520184E090E00E94FF
:10115000F02810929C010E94862186C3992351F0A9
:10116000109243010E9405259093400180933F0116
:1011700082E020C08091430181110FC080913F0126
:10118000909140010E94DB24883C910530F486E276
:101190000E940B2286E20E94A42182E022C09923B1
:1011A00061F0109244010E940525909342018093C2
:1011B000410180E20E949A2157C38091440181112C
:1011C0000FC080914101909142010E94DB24883C34
:1011D000910530F487E20E940B2287E20E94A4214D
:1011E00080E20E948F2140C39111DBCF80914401A6
:1011F0008111F6CF80914101909142010E94DB2440
:10120000883C910568F780E20E948F2188E20E9465
:101210000B2288E20E94A42127C380919C0199237C
:1012200089F0982F9A7A81E009F480E080933E015A
:10123000811102C069E201C065E38AEE91E00E947B
:10124000DE250BC080913E01811102C069E201C020
:1012500065E38AEE91E00E94D2250E945F2604C3D6
:1012600081E08093430180934401F801C080D180E4
:10127000992349F0C6010E94C726F82E682FC6019F
:101280000E943D2704C0C6010E941127F82EB60116
:101290008F2D0E94BF1C982EB82EF80135813295F3
:1012A0003F70D280D11010926302809160028770EB
:1012B00099F0DD2089F080E2890D883068F082E0C5
:1012C0003A8399830E949B27809160028770CC2487
:1012D000C3943A8199818111C12CE92EE2942FE0C7
:1012E000E222F12CFCE0EF16F10408F086C2F701CF
:1012F000E859FF4F0C94A12C892F807F9F70A92E55
:10130000882319F0A29480EFA822DD20B9F0AA204A
:1013100009F45EC280E2890D883010F0B11006C079
:1013200090919C019A2990939C0105C09091630231
:101330009A29909363020E945F264AC2892D0E94D7
:10134000A421AA2009F459C280E2890DA094883012
:1013500010F0B11006C090919C019A2190939C01CD
:1013600005C0909163029A21909363020E945F26C8
:1013700044C2292F207F892F8F70203211F082954F
:10138000807FBB2029F088248394B814B9F020C052
:10139000DD2061F090916102892B332309F4A0C113
:1013A000313009F09DC18093610227C2332319F0C7
:1013B000313009F422C21092610298C1DD2021F07F
:1013C000363008F01AC28CC1353008F016C28EC112
:1013D000DD2051F0332309F483C1F801958190FF9A
:1013E000F7C19F7095837CC1332309F47FC102C28A
:1013F000292F26952695237030E02115310521F0FF
:101400002130310559F0F9C1DD2019F0892D937093
:1014100002C080E090E00E944519FDC1DD2019F076
:10142000892D937002C080E090E00E942F19F3C1D3
:10143000892DDD20F9F0853F51F0863F71F0843F22
:10144000A9F4809145019091460181600BC0809183
:10145000450190914601826005C0809145019091BF
:10146000460184609093460180934501892D0E9436
:101470004D241EC0853F51F0863F71F0843FA9F492
:1014800080914501909146018E7F0BC0809145016E
:10149000909146018D7F05C0809145019091460154
:1014A0008B7F9093460180934501892D0E9486236E
:1014B0000E941125B0C1892F837009F079C0D11025
:1014C000A8C1892D829586958770880F880F492D30
:1014D0004F7050E060E070E02A013B01082E04C02C
:1014E000440C551C661C771C0A94D2F794FE14C059
:1014F0004FE050E060E070E04A015B0104C0880CFE
:10150000991CAA1CBB1C8A95D2F7B501A401409571
:1015100050956095709503C040E050E0BA019695F3
:1015200096959370892F90E0809064029090650268
:10153000A0906602B090670282309105A9F08330D6
:101540009105E9F0019759F0442955296629772931
:10155000CB01BA01682179218A219B2126C0482824
:1015600059286A287B281BC04429552966297729D0
:10157000CB01BA01682579258A259B2516C0CB01A8
:10158000BA01682179218A219B210E94D3274091A9
:101590006402509165026091660270916702CB010E
:1015A000BA0164297529862997290E94D32731C158
:1015B000DD2019F0892F817001C08695882309F4F8
:1015C00028C1892D829586958770880F880F492DAF
:1015D0004F7050E060E070E02A013B01082E04C02B
:1015E000440C551C661C771C0A94D2F794FE14C058
:1015F0004FE050E060E070E04A015B0104C0880CFD
:10160000991CAA1CBB1C8A95D2F7B501A401409570
:1016100050956095709503C040E050E0BA019695F2
:1016200096959370892F90E080905C0290905D0277
:10163000A0905E02B0905F0282309105A9F08330E5
:101640009105E9F0019759F0442955296629772930
:10165000CB01BA01682179218A219B2126C0482823
:1016600059286A287B281BC04429552966297729CF
:10167000CB01BA01682579258A259B2516C0CB01A7
:10168000BA01682179218A219B210E946C2740910F
:101690005C0250915D0260915E0270915F02CB012D
:1016A000BA0164297529862997290E946C27B1C03F
:1016B000892D492D50E0FA01E05EF109E531F1058F
:1016C00008F081C0EC58FF4F0C94A12CF92DFF704D
:1016D000BF2E892F8F71DD2031F00E94B2278B2D14
:1016E0000E949A218AC00E9476278B2D0E948F210A
:1016F00084C0DD2019F1353008F07FC0292F2F710B
:1017000081E090E0A0E0B0E0AC01BD0104C0440F76
:10171000551F661F771F2A95D2F780915C02909122
:101720005D02A0915E02B0915F024A015B018826D2
:101730009926AA26BB26C501B40125C0363008F07B
:101740005CC0DCCFDD2029F0892F8F712EC0DD2019
:10175000D9F3892F8F710E9476274FC0DD2081F049
:10176000292F2F7181E090E0A0E0B0E0BC01CD0115
:1017700004C0660F771F881F991F2A95D2F703C0F0
:1017800060E070E0CB010E946C2737C0DD2081F063
:101790009F71D92E892F0E94B22728E0D29EC001C6
:1017A00011248360809360028D2D0E94B22725C092
:1017B00081E03A830E949B273A813230F0F082E048
:1017C0000E949B271AC0DD2039F0332309F4BCCFD7
:1017D000892D0E940B2211C0332309F4BACF89331B
:1017E00049F48FEF97EEE3E081509040E040E1F75D
:1017F00000C00000892D0E94A421F8E0EF16F1043A
:1018000041F04CF08AE0E81AF10892E0E916F104A0
:1018100010F40E945B19CC2039F18091600280FDA8
:1018200023C0F80112828595859585950E94B2277F
:10183000C8010E94BB0580916002859585958595BC
:101840000F900F90DF91CF911F910F91FF90EF902C
:10185000DF90CF90BF90AF909F908F907F906F90D0
:101860005F904F900C9476270F900F90DF91CF915F
:101870001F910F91FF90EF90DF90CF90BF90AF90AE
:101880009F908F907F906F905F904F9008959FB73B
:10189000F894109299019FBF9091A901943009F09A
:1018A00057C09091E9009F703091EC00232F217078
:1018B00030FD20E8922B23E02093E9002091EB00FB
:1018C00020FF43C02091EE0027FF3FC02091470139
:1018D000222321F02091E80025FF37C01092470114
:1018E00026E03091E80035FD15C03091A901343073
:1018F00061F53091EB0035FD28C0215021F481E0E5
:101900008093470122C0EFE9FFE03197F1F700C073
:101910000000E7CF8093F1008091E80085FD0AC0C8
:101920008091E80080FFFCCF8091E8008E77809363
:10193000E80006C08FB7F89421E0209399018FBF8B
:101940009F709093E90080E008959F709093E90064
:101950008FEF0895CF93DF9300D01F92CDB7DEB7FE
:101960002091A901243031F523E029838058910981
:101970009B838A8382E08093E9008FEF9091E80057
:10198000815095FD06C095ED9A95F1F70000811103
:10199000F5CF8091E80085FF0DC040E050E063E0A6
:1019A00070E0CE0101960E9493138091E8008E773B
:1019B0008093E8000F900F900F90DF91CF910895E2
:1019C0000F931F93CF93DF9300D01F92CDB7DEB755
:1019D0008C010E94D028823011F0843021F584E0FF
:1019E00089831B830A8382E08093E9008FEF9091C3
:1019F000E800815095FD06C095ED9A95F1F700003D
:101A00008111F5CF8091E80085FF0DC040E050E0E6
:101A100063E070E0CE0101960E9493138091E8008C
:101A20008E778093E8000F900F900F90DF91CF9109
:101A30001F910F910895CF93DF93CDB7DEB72F9706
:101A40000FB6F894DEBF0FBECDBF84B7877F84BFCB
:101A50000FB6F894A895809160008861809360002B
:101A6000109260000FBE80E88093610010926100C8
:101A700085B7806885BF85B7806885BF0E94E916F5
:101A80000E9408178091E20084608093E20087E45E
:101A90009CE090933D0180933C0178948091A90152
:101AA0008823A1F01091E9001F709091EC00892F1C
:101AB000817090FD80E8182B1092E9008091E80079
:101AC00083FD0E94CA131F701093E90082E084BD59
:101AD00093E095BD9AEF97BD80936E00E8E1F1E049
:101AE00041E050E025E02E0F9191A92FA295AF7013
:101AF000B0E091963C9191979F70BA0102C0660F39
:101B0000771F9A95E2F7CB018095832391968C936A
:101B10002E13EACFADE1B1E041E050E02FE02A0F13
:101B20008D91E82FE295EF70F0E031A18F70BA014E
:101B300002C0660F771F8A95E2F7CB01962F90952A
:101B4000932391A392A1892B82A32A13E9CFE8E4DE
:101B5000F1E0A7E5B1E0119211921D921D9271E0A2
:101B6000E235F707C1F70E94F825811102C00E94F3
:101B700003260E94F825811102C00E94032682E0FC
:101B800090E00E94DC2880936B0184E090E00E944A
:101B9000DC2890E0909353018093520183E090E021
:101BA0000E94DC28682F70E080E090E00E94D3273C
:101BB00080916B01816080936B0181E495E09F933C
:101BC0008F930E94B20580916B010F900F9080FF60
:101BD00008C08BE295E09F938F930E94B2050F900F
:101BE0000F900E94F825811110C080916B0180FF39
:101BF00008C083E095E09F938F930E94B2050F90F9
:101C00000F900E9403260E94AF1988E090E00E9486
:101C1000E4286093930170939401809395019093CD
:101C200096016E77D1F480916B0180FF08C08AEB3A
:101C300094E09F938F930E94B2050F900F900E94A3
:101C4000AF1988E090E00E94E428609393017093BC
:101C50009401809395019093960180916B0180FF90
:101C600008C083EA94E09F938F930E94B2050F907F
:101C70000F9080916B0180FF0FC080919301817064
:101C80001F928F9386E894E09F938F930E94B205F2
:101C90000F900F900F900F9080916B0180FF10C0FC
:101CA0008091930186958F731F928F938BE694E0BA
:101CB0009F938F930E94B2050F900F900F900F90FB
:101CC00080916B0180FF19C080919301881F882744
:101CD000881F90919401292F220F822B97FB99271F
:101CE00090F99F938F9381E594E09F938F930E9447
:101CF000B2050F900F900F900F9080916B0180FFB5
:101D00000EC0809195011F928F9387E394E09F937B
:101D10008F930E94B2050F900F900F900F908091BB
:101D20006B0180FF0EC0809196011F928F938DE111
:101D300094E09F938F930E94B2050F900F900F90A5
:101D40000F9080916B0180FF0EC0809197011F92D0
:101D50008F9381E094E09F938F930E94B2050F9040
:101D60000F900F900F9081E08093980180919301E4
:101D700080FF05C0869560E08F730E94501B82E053
:101D800091E090935501809354018FEA95E00E9471
:101D90001905E8E6AE2EBB24B3948091A9018530E5
:101DA00009F03FC08BEA95E00E9419058091A901D6
:101DB000843021F11092560120E488E190E00FB6C2
:101DC000F894A895809360000FBE2093600083B7BD
:101DD000817F846083BF83B7816083BF7894889557
:101DE00083B78E7F83BF0FB6F894A895809160006B
:101DF000886180936000109260000FBE8091A801FE
:101E0000882309F4CACF0E94EF1BE7E5F1E0819136
:101E10009191892B09F04DC481E0E136F807B9F7BB
:101E2000BCCF0E94EF1B6CE6262E61E0362E77E5D4
:101E3000872E71E0972E00E010E00E87D401CD9040
:101E4000DD904D01F101E190F1901F01EC24FD24A2
:101E5000E114F104B1F40F5F1F4F0530110569F76C
:101E60008FEF8E838F8318860E9405258160782FDF
:101E70009A8789874E815F8168858A850E94981834
:101E800082C080916B0181FD03C080E090E04CC076
:101E900088E695E00E94190557E5652E51E0752EFC
:101EA000412C512C5F924F92A3E6B5E0BF93AF93C4
:101EB0000E94B20580E695E00E941905D3018C913D
:101EC00011962C91B2E06B0E711C2F870E9449264F
:101ED000982F2F85822F9F870E9449269F85292F23
:101EE00030E0322F2227F901E82BCF019F938F9307
:101EF000AAE5B5E0BF93AF930E94B20588E595E0EF
:101F00000E941905FFEF4F1A5F0A0FB6F894DEBF63
:101F10000FBECDBF35E04316510421F6B6CF019672
:101F20008F30910509F497CF66246394712C082EA5
:101F300002C0660C771C0A94E2F793012E213F2120
:101F4000232B69F389834E854A83C620D72081E0FD
:101F5000CD2809F480E08B830E9405258160782FCD
:101F60009D838C8349815A816B818D810E94981851
:101F7000000F111FF801E459FE4F808191816826FE
:101F800079267182608280916801909169010E9436
:101F9000DB24AC0190916701911103C02CE231E088
:101FA00002C022E330E04217530708F478C0809162
:101FB00063011091640181110BC0111190C3209134
:101FC000650121118CC320916601211188C367C06E
:101FD0009F3F19F09F5F90936701181624F40E94A9
:101FE0002D24809363018091630187FF05C00E94C7
:101FF0002D24819580936301111624F40E942D24D1
:10200000809364018091640187FF05C00E942D24A4
:10201000819580936401309163013323E1F0209135
:1020200064012223C1F055EB3503C0011124892F2F
:10203000990F990B009709F481E08093630165EB98
:102040002603C0011124892F990F990B009709F4D9
:1020500081E08093640180916501181624F40E9448
:102060000B24809365018091650187FF05C00E9464
:102070000B2481958093650180916601181624F4E4
:102080000E940B24809366018091660187FF05C042
:102090000E940B248195809366010E941125109166
:1020A0006A010E945B19181739F10E945B19182FF9
:1020B00080936A0180916B0182FF1EC080FF04C083
:1020C00086E895E00E94190580916B0180FF0CC0A5
:1020D0001F921F9381E895E09F938F930E94B20512
:1020E0000F900F900F900F9080916B0180FF04C0B4
:1020F0008FE795E00E94190580919801882309F4E3
:102100004CCE80919301182F16951F739EE3910F6B
:102110009F73943008F055C08091770190917801B9
:102120000E94DB24EEEFE10FF0E0E756FA4FE49176
:10213000F0E08E179F0708F430CE0E94052590939B
:102140007801809377016091760170E080E090E003
:102150000E946E2A20E030E04FE753E40E9491296C
:102160002BED3FE049E450E40E94972B0E94042CA1
:102170000E940B2A2BE43AE34EE25FE30E942429FB
:1021800020EF3BEF48ED52E40E94972B0E943D2A3E
:10219000462F80919301881F8827881F9091940172
:1021A000292F220F97FB992790F960919501822B97
:1021B0000E94D51B8091760190E001968093760174
:1021C000ECCD9AE3910F9F73933070F580917B0172
:1021D00090917C010E94DB24EAEFE10FF0E0E356EE
:1021E000FA4FE491F0E08E179F0708F4D6CD0E94D5
:1021F000052590937C0180937B014091960160912D
:1022000095018091790190917A010E94D51B80916E
:10221000790190917A010196B5010E94792C9093F1
:102220007A0180937901B9CD97E3910F9F7396302E
:1022300008F04DC0B7EFDB2ED10E80917F01909159
:1022400080010E94DB24ED2DE695F0E0E056FA4F88
:10225000E491F0E08E179F0708F49FCD0E940525BA
:102260009093800180937F01A3EBEA2EA1E0FA2EE8
:1022700000E010E080917D0190917E01800F911F20
:10228000B5010E94792C97014091960160919501CA
:102290000E94C1190A5E1F4F73E0E70EF11C003661
:1022A00081E0180739F70E94761980917D0190919D
:1022B0007E01D0FE06C0019668E671E00E94792C8E
:1022C00001C0019790937E0180937D0166CD91E3DB
:1022D000910F9F73963008F081C01F5010FF03C00C
:1022E00077247A9402C0772473948091820190912C
:1022F00083010E94DB24E12FE695F0E0ED55FA4FD3
:10230000E491F0E08E179F0708F447CD0E94052561
:102310009093830180938201E3EBCE2EE1E0DE2EE9
:10232000F5EBEF2EF1E0FF2E00E010E0F701319722
:102330001082D6011C92F701108274E0872E912C36
:10234000612C80918101860D87FD805F082E000C35
:10235000990B08171907E9F480919601889DA0014F
:10236000899D500D11245595479555954795809118
:102370009301881F8827881F90919401592F550F2A
:1023800097FB992790F9960160919501852B0E9402
:10239000C119670CF1E08F1A910899F60F5F1F4F72
:1023A00023E0C20ED11C33E0E30EF11C0031110515
:1023B00009F0BCCF0E9476198091810141E074122E
:1023C00008C0811102C08FE001C08150809381015B
:1023D000E4CC90E001968F709927F8CF9BE2910FA3
:1023E0009F73933008F07BC08091850190918601A6
:1023F0000E94DB24EBEEE10FF0E0EA55FA4FE491A6
:10240000F0E08E179F0708F4C8CC0E940525909332
:1024100086018093850180E090E0FC01ED54FE4F41
:10242000118210821282039680339105B1F723EB5B
:10243000C22E21E0D22E35EBE32E31E0F32E00E068
:1024400010E080918401082E000C990B08171907E1
:10245000ECF080910101082E000C990B8017910778
:10246000ACF080919301881F8827881F9091940178
:10247000592F550F97FB992790F996014091960196
:1024800060919501852B0E94C11907C0F701319712
:102490001082D6011C92F70110820F5F1F4FF3E0EC
:1024A000CF0ED11C23E0E20EF11C0031110549F6DC
:1024B0000E9476198091000190918401980F909369
:1024C000840120910101280F2093010112161CF4B0
:1024D0009F300CF462CC8195809300015ECC8E77A6
:1024E000803309F042C08091890190918A010E9455
:1024F000DB24883E934008F450CC0E94052590933D
:102500008A018093890100918701109188010F5FF2
:102510001F4F01701127109388010093870183EBEF
:10252000E82E81E0F82ED12C98E7C92E8D2D8695C6
:10253000A801480F511DCA01817099279701409148
:10254000960160919501DC01CA9EC001CB9E900D61
:1025500011240E94C119D394B3E0EB0EF11CE0E109
:10256000DE12E4CF0E94761918CC863409F047C0F9
:1025700080918D0190918E010E94DB24E9EAF5E0C3
:10258000259134918217930708F407CC80918C0130
:1025900081110CC09E01255F3F4F4FEF6FEF80E030
:1025A00090E00E94C1198C8580938C010E940525C2
:1025B00090938E0180938D0180918B01813051F039
:1025C00028F0823061F440918C010AC080918C0126
:1025D00040E007C060918C0140E080E003C040E033
:1025E00080E060E00E94921980918B0190E001965A
:1025F00063E070E00E948D2C80938B01CECB8834F9
:1026000009F0CBCB80919101909192010E94DB2443
:10261000843F914008F4C1CB0E940525909392011C
:102620008093910103EB11E0E12CF12C8091930157
:102630009091940120918F013091900148E0E4162F
:10264000F1041CF4232B79F002C0232B61F4881FC2
:102650008827881F592F550F97FB992790F99801C4
:10266000409196010AC0881F8827881F592F550F4F
:1026700097FB992790F9980140E060919501852B8F
:102680000E94C1195FEFE51AF50A0D5F1F4F60E167
:10269000E616F10459F60E94761980918F01909107
:1026A00090010196817099279093900180938F01FA
:1026B00074CB80E189BD82E189BD09B400FEFDCF04
:1026C0008091D8008F7D8093D8008091E000826057
:1026D0008093E0008091E00081FDFCCF5ECB9F3FC6
:1026E00009F078CC80CC21B32E7F31B331604FB765
:1026F000F894E3EBF1E08D549E4FE817F90789F069
:10270000519168E031BB000000C057FF21BB550F5D
:10271000000000C000C000C021BB00C06A9591F756
:10272000ECCF4FBF0895CF92DF92FF920F931F938C
:10273000CF93DF931F92CDB7DEB7F82E8B0199832D
:102740000E94E727998181111CC0CF2CD92E011539
:102750001105B1F08091E80085FD0AC08091E80084
:102760008E778093E8000E94E727882381F309C0D1
:10277000F60181916F018093F10001501109E7CFBB
:1027800080E00F90DF91CF911F910F91FF90DF902C
:10279000CF9008951F93CF93DF93CDB7DEB7AA975D
:1027A0000FB6F894DEBF0FBECDBFEBEAF1E088E0D4
:1027B0008E0F9091F10091938E13FBCF8091AC011D
:1027C000833009F464C030F4813071F0823009F450
:1027D000A0C0B7C08A3009F48CC08B3009F46FC038
:1027E000893009F0AEC020C08091AB01813A09F078
:1027F000A8C08091E800877F8093E8008091AF01B6
:102800009091B001892B21F468E08FE991E003C039
:1028100060E080E090E070E00E946D288091E80028
:102820008B778093E8008DC08091AB01813209F0F5
:1028300088C08091AF019091B001029708F081C0EB
:102840008091E800877F8093E8008091E80082FD16
:1028500005C08091A9018111F8CF73C02091F300C8
:102860008091F20090E0922B029749F480910C0144
:10287000882329F08091F1008B7F813021F48091B1
:10288000F10080939E018091E8008B7756C0809183
:10289000AB01813A09F055C08091AF019091B00130
:1028A000892B09F04EC08091E800877F8093E80073
:1028B0008091E80080FFFCCF80910C0139C08091AD
:1028C000AB018132F1F58091AF019091B001892B7C
:1028D000C1F58091E800877F8093E8000E94192865
:1028E0008091AD0180930C0110929C010E94862181
:1028F00028C08091AB01813221F58091E800877F6B
:102900008093E8000E9419288091AE0180939D0178
:1029100018C08091AB01813AA1F48091E800877FD3
:102920008093E8008091E80080FFFCCF80919D01BA
:102930008093F1008091E8008E778093E8000E94F8
:1029400019288091E80083FFE2C18091AB0190914A
:10295000AC01492F50E04A30510508F0D8C1FA01C6
:10296000E757FF4F0C94A12C803821F0823809F0F2
:10297000CEC108C08091A7019091A801992389F048
:1029800082600FC08091AF018F70873008F0BFC1A7
:102990008093E9008091EB0085FB882780F91092F5
:1029A000E9009091E800977F9093E8008093F10010
:1029B0001092F1007FC1282F2D7F09F0A8C1882334
:1029C00019F0823061F0A3C18091AD01813009F02E
:1029D0009EC1933009F080E08093A8012EC08091C1
:1029E000AD0181112AC08091AF018F702FEF280FA8
:1029F000263008F08CC18093E9002091EB0020FF85
:102A00001CC0933021F48091EB00806214C090913F
:102A1000EB0090619093EB0021E030E0A90102C04F
:102A2000440F551F8A95E2F74093EA001092EA009E
:102A30008091EB0088608093EB001092E900809118
:102A4000E800877F8093E8000E94192860C1811107
:102A50005EC11091AD011F778091E3008078812BDA
:102A60008093E3008091E800877F8093E8000E94D4
:102A700019288091E80080FFFCCF8091E3008068F6
:102A80008093E300111102C082E001C083E08093D3
:102A9000A9013DC18058823008F039C12091AD01B3
:102AA0003091AE012C3D53E0350779F583E08A8300
:102AB0008AE289834FB7F894DE01139620E03EE066
:102AC00051E2E32FF0E050935700E49120FF03C060
:102AD000E295EF703F5FEF708E2F90E0EA3010F0DC
:102AE000C79601C0C0968D939D932F5F243149F7FF
:102AF0004FBF8091E800877F8093E8006AE270E032
:102B0000CE0101960E946D28C4C08091AF019091C2
:102B1000B001432F552743305105B9F06CF44130D3
:102B2000510509F403C14230510509F0F0C08BE5AD
:102B300090E0EBEBF6E05BC04132510509F434C0A4
:102B40004232510509F43FC0E2C0C90199278130E2
:102B50009105D1F05CF4892B09F0D9C0E6E4F7E0E7
:102B6000E4918E2F90E0E6E4F7E03EC082309105DC
:102B700099F0039709F0CBC0E8E2F7E0E4918E2FDB
:102B800090E0E8E2F7E030C0ECE3F7E0E4918E2F6C
:102B900090E0ECE3F7E028C0EEE2F7E0E4918E2F5E
:102BA00090E0EEE2F7E020C08330910508F0AFC07E
:102BB000880F991FFC01EB5CFE4F0190F081E02D26
:102BC00089E090E014C08330910508F0A0C0FC01BA
:102BD000EE0FFF1FE15DFE4F0190F081E02DDC0163
:102BE000A45DBE4F8C9190E0009709F490C02091B5
:102BF000E800277F2093E8002091B1013091B201D5
:102C00002817390708F4C90140E0009789F120919D
:102C1000A901222309F43DC02530D9F12091E80013
:102C200023FD37C02091E80022FD2FC02091E8004D
:102C300020FFEBCF4091F3002091F20030E0342BE5
:102C4000009759F02830310540F444914093F10049
:102C5000319601972F5F3F4FF3CF41E02830310588
:102C600009F040E02091E8002E772093E800CDCFD6
:102C70004111CDCF0AC08091A901882351F0853040
:102C800041F08091E80083FD04C08091E80082FF5C
:102C9000F2CF8091E8008B778093E80038C08038CD
:102CA000B1F58091E800877F8093E8008091AA01C8
:102CB0008093F1008091E8008E77C4CE811127C007
:102CC0001091AD01123018F58091E800877F809354
:102CD000E8001093AA010E941928111106C08091E2
:102CE000E30087FD02C081E001C084E08093A90178
:102CF00042E061EC81E00E94382842E261EC82E02F
:102D00000E94382842E261EC83E00E9438288091DA
:102D1000E80083FF10C08091E800877F8093E8007F
:102D20008091EB0080628093EB0005C082E190E02F
:102D3000E6E1F7E05CCFAA960FB6F894DEBF0FBECF
:102D4000CDBFDF91CF911F9108951F920F920FB6C3
:102D50000F9211242F933F934F935F936F937F9321
:102D60008F939F93AF93BF93CF93DF93EF93FF9393
:102D7000C091E900CF708091EC00D82FD17080FD18
:102D8000D0E81092E9008091F000877F8093F000F6
:102D900078940E94CA131092E9008091F000886034
:102DA0008093F000CD2BCF70C093E900FF91EF919D
:102DB000DF91CF91BF91AF919F918F917F916F9153
:102DC0005F914F913F912F910F900FBE0F901F90E9
:102DD0001895E8EDF0E080818E7F80831092E2000C
:102DE0001092DA001092E100A0EEB0E08C918160C8
:102DF0008C9380818F77808319BCA7EDB0E08C9194
:102E00008E7F8C9380818F7E808310929B010895AA
:102E1000CF92DF92EF92FF920F931F93CF93DF93A6
:102E2000C8EDD0E088818F7E8883E7EDF0E0808177
:102E30008160808384E082BF81E080939B018881F0
:102E40008E7F888302EE10E0F80110821092DA0083
:102E500081EEC82ED12CF601108288818F7788836D
:102E600088818068888388818F7D888319BC1092CF
:102E7000A9011092AA011092A8011092A70190EE48
:102E8000E92EF12CF70180818B7F8083888181601E
:102E9000888342E060E080E00E943828F60180816B
:102EA0008E7F8083F801808181608083808188604B
:102EB0008083F70180818E7F808388818061888311
:102EC000DF91CF911F910F91FF90EF90DF90CF9006
:102ED00008951F920F920FB60F9211242F933F93D4
:102EE0004F935F936F937F938F939F93AF93BF9312
:102EF000EF93FF938091E10082FF49C08091E2004F
:102F000082FF45C08091E1008B7F8093E10020919A
:102F10009A012F5F822F62E30E946D2C992319F092
:102F200020939A0134C010929A01809199018823CC
:102F300071F18091A901843041F58091E9008F7091
:102F40002091EC00922F917020FD90E8892B93E066
:102F50009093E9009091EB0090FF14C09091EE00E7
:102F600097FF10C09091E80095FF03C01092F10008
:102F7000F9CF9091E80090FF05C09091E8009E770E
:102F80009093E8008F708093E900109299018091EE
:102F9000DA0080FF32C08091D80080FF2EC080917F
:102FA000DA008E7F8093DA008091D90080FF1CC008
:102FB00080E189BD82E189BD09B400FEFDCF81E0D9
:102FC0008093A90187EA96E00E94190580919B01F0
:102FD000811113C00E94E9160E9408178091E20037
:102FE00084608093E20009C019BC1092A9018BEAA9
:102FF00096E00E94190510929B018091E10080FFEC
:103000001BC08091E20080FF17C08091E2008E7F9C
:103010008093E2008091E20080618093E2008091E1
:10302000D80080628093D80019BC85E08093A90104
:103030008FEA96E00E9419058091E10084FF38C074
:103040008091E20084FF34C080E189BD82E189BDC6
:1030500009B400FEFDCF8091D8008F7D8093D80009
:103060008091E1008F7E8093E1008091E2008F7E6D
:103070008093E2008091E20081608093E200809181
:10308000AA01882311F084E007C08091E30087FD46
:1030900002C081E001C083E08093A90183EB96E048
:1030A0000E94190510929C010E9486210E945B19C2
:1030B0008091E10083FF2BC08091E20083FF27C055
:1030C0008091E100877F8093E10082E08093A901F5
:1030D0001092AA018091E1008E7F8093E10080919F
:1030E000E2008E7F8093E2008091E2008061809315
:1030F000E20042E060E080E00E9438288091F00029
:1031000088608093F00087EB96E00E941905FF919C
:10311000EF91BF91AF919F918F917F916F915F914F
:103120004F913F912F910F900FBE0F901F901895C8
:103130001F93CF93DF93CDB7DEB767970FB6F894A1
:10314000DEBF0FBECDBF4B8B5C8B6D8B7E8B8F8BB1
:1031500086E09E01235F3F4FD901E82F1D92EA953B
:10316000E9F795E0FE017396D90101900D929A95C9
:10317000E1F7F901DE01179601900D928A95E1F7CA
:10318000CE0107960E94AD1F811136C086E0FE0178
:103190003796DE01119601900D928A95E1F77F81B5
:1031A0006885EA85FB85309739F16F3F11F47F3FE1
:1031B00019F12091F80130E0C90101968770992733
:1031C0004091290250E08417950779F179836A8349
:1031D000FD83EC8396E0929FD001939FB00D112464
:1031E000A750BE4FFE01319601900D929A95E1F7DE
:1031F0008093F8010E94DD2716E0809129029091CA
:10320000F801891711F1189FC001112487509E4FB2
:103210000E94AD1F8823C9F08091290290E0019699
:103220008770992780932902E8CF10929C010E9411
:1032300086211092F80110922902E2EFF1E086E077
:10324000DF011D928A95E9F7D7CF67960FB6F894FC
:10325000DEBF0FBECDBFDF91CF911F9108952091AA
:10326000E8013091E9018217930771F09093E90129
:103270008093E801E0915401F0915501309721F0DD
:103280000084F185E02D099408952091E6013091A4
:10329000E7018217930771F09093E7018093E601AD
:1032A000E0915401F0915501309721F00680F781AB
:1032B000E02D09940895E0915401F0915501309763
:1032C00021F00190F081E02D099480E008951092A2
:1032D000980180916B0180FF08C082E199E09F9383
:1032E0008F930E94B2050F900F90089580919301E3
:1032F00080FD0CC080E090E0FC01ED54FE4F118297
:1033000010821282039680339105B1F7809A80E390
:1033100090E00E94731387EC90E00197F1F700C0F2
:10332000000008959091930190FF0FC020E030E0DD
:10333000F901ED54FE4F8183608342832D5F3F4F3F
:1033400020333105A9F70C947619089580919301E3
:1033500080FF03C086958F73089580E00895E3E9A8
:10336000F1E083E08083109294018FEF8283838366
:103370001482408151816281738188E090E00C94D5
:103380000229EF92FF920F931F93CF93DF93E901EE
:10339000662309F44BC0242F30E0EFEFF0E0E61B8A
:1033A000F109B901E69F9001E79F300DF69F300DBE
:1033B0001124232F8B01031B11095CE3E52EF12C53
:1033C000B7010E94792CFB01BC01069FC001079F39
:1033D000900D169F900D1124B7010E94792CE230B8
:1033E000F105B1F040F4309779F0319711F5832F62
:1033F000242F461B21C0E430F105A1F068F0359779
:10340000C1F4842F861B18C0832F262F230F14C0CE
:10341000862F830FE42F03C0E42FE61B842F432F56
:103420002E2F0AC0842F462F430F06C0842F242F2F
:1034300003C080E020E040E0E42FF0E0E65BF84FDE
:103440004491E22FF0E0E65BF84F9491E82FF0E032
:10345000E65BF84FE49149839883EA83DF91CF914B
:103460001F910F91FF90EF9008952F923F924F92EE
:103470005F926F927F928F929F92AF92BF92CF9204
:10348000DF92EF92FF920F931F93CF93DF93CDB70D
:10349000DEB727970FB6F894DEBF0FBECDBF8C0105
:1034A000262E342E2D838091930180FFE0C0982F2B
:1034B0009E77923061F49E012F5F3F4FC8010E94BA
:1034C000C1194B8169818A810E94921981C0E82FBC
:1034D000E695EF739EE39E0F9F73943018F430903F
:1034E000960176C09AE39E0F9F73993068F4881F07
:1034F0008827881F90919401292F220F022F082BD3
:1035000097FB112710F964C087E28E0F8F738A3002
:1035100008F05EC0F0E07997E0FD03C021E02C8365
:1035200002C03FEF3C83EE7FE85FF64F85909490BA
:103530008C81682E880F7708C40124E096958795C2
:103540002A95E1F7689E2001699E500C789E500CE8
:103550001124580198E9A91A9EEFB90A33EBC32E3A
:1035600031E0D32EE12CF12CC50168E671E00E9418
:10357000792C20916B0120FF18C09F928F927F922F
:10358000AC81AF939F938F93FF92EF92A1EEB8E03F
:10359000BF93AF938E839F830E94B2050FB6F894BA
:1035A000DEBF0FBECDBF9F818E819601432D622D60
:1035B0000E94C119BFEFEB1AFB0AA40CB51C23E053
:1035C000C20ED11C30E1E316F10471F60E947619A7
:1035D0008091930100FB87F980939301809194017E
:1035E0008078902F9695892B10FB87F98093940112
:1035F00020929501309296018D81882331F140917E
:10360000930150919401609195017091960188E029
:1036100090E00E940229809196011F928F938091E1
:1036200095011F928F9380919301881F8827881F8F
:1036300090919401292F220F822B97FB992790F9C3
:103640009F938F938CEB98E009C01F923F921F923B
:103650002F9211701F930F9385E998E09F938F939A
:103660000E94B2050FB6F894DEBF0FBECDBF2796FD
:103670000FB6F894DEBF0FBECDBFDF91CF911F9183
:103680000F91FF90EF90DF90CF90BF90AF909F9001
:103690008F907F906F905F904F903F902F90089504
:1036A0009091930190FF68C09178811102C092605F
:1036B00007C0853210F0986403C08F73880F982B71
:1036C000909393016623A9F0409193015091940146
:1036D000609195017091960188E090E00E94022926
:1036E0008091930186958F731F928F9389E798E05D
:1036F00008C08091930186958F731F928F938BE5FD
:1037000098E09F938F930E94B2050F900F900F90B7
:103710000F906091930166956F7370E04BE050E0FD
:103720008DE091E00E94A72C892B19F00E94671967
:103730000FC081E08093980180916B0180FF08C0E9
:103740008AE498E09F938F930E94B2050F900F90A8
:1037500080919301881F8827881F90919401392FA9
:10376000330F97FB992790F920E0409196016091E3
:103770009501832B0C94351A089561E00C94501B2D
:103780008091930186958F73815009F484E261E002
:103790000C94501B8091930186958F738F5F8532B7
:1037A00008F081E061E00C94501BCF93DF9300D0D0
:1037B0001F92CDB7DEB72091930120FF0AC09E0172
:1037C0002F5F3F4F0E94C1194B8169818A810E94FE
:1037D00092190F900F900F90DF91CF9108954F9213
:1037E0005F927F928F929F92AF92BF92CF92DF9221
:1037F000EF92FF920F931F93CF93DF9328E1422E16
:1038000021E0522EA8E4B1E0912C01E010E06D011E
:10381000AD90BC90119711961C921E92E201899175
:103820002E01E82FE295EF70F0E021A18F70A80142
:1038300002C0440F551F8A95E2F7CA01242B21A329
:1038400022A1842E8094282122A350EA5A95F1F7D0
:103850009DE1E92E91E0F92E40E050E0E7017990FA
:103860007E01272D22952F7030E0E90128A16D916E
:103870007C91119730E0D72DDF7002C035952795E8
:10388000DA95E2F720FD08C09801042E02C0220F4D
:10389000331F0A94E2F702C020E030E0622B732B62
:1038A00011967C936E934F5F5F4F4F305105B1F689
:1038B00091A1892281A292A1892B82A3129681E0F3
:1038C000F60120813181A216B30609F480E0982A1E
:1038D000F1E0A235BF0709F09ACF992049F081E0C5
:1038E0008093E5010E9405259093E4018093E30114
:1038F0008091E501882391F18091E3019091E401A9
:103900000E94DB24069750F1809148019091490173
:10391000909358018093570180914A0190914B01F7
:1039200090935A018093590180914C0190914D01DF
:1039300090935C0180935B0180914E0190914F01C7
:1039400090935E0180935D018091500190915101AF
:103950009093600180935F011092E50181E0DF9117
:10396000CF911F910F91FF90EF90DF90CF90BF907C
:10397000AF909F908F907F905F904F9008952FE031
:10398000729FF00111244BE4849FE00DF11D11247E
:10399000E60FF11DEE0FFF1FE857FE4F45915491C2
:1039A000CA014238510549F1B0F44133510509F4D7
:1039B0005EC048F44932510509F454C04A325105F9
:1039C00009F45AC05EC04533510509F446C0493375
:1039D000510599F056C0433E510531F138F4403E4F
:1039E000510591F0423E5105A1F04BC0463E5105B4
:1039F00011F1473E510551F144C02091520120FD83
:103A00001BC221FD19C208952091520120FD17C249
:103A100008952091520122FF20C28091520184FD1D
:103A2000BDC183EE90E008958091520182FFF5CFF1
:103A300082EE90E008952091520123FF0EC2809102
:103A4000520184FDABC187EE90E008958091520150
:103A500083FFF5CF86EE90E008952091520125FD79
:103A6000F1C108952091520125FDEFC108952091E3
:103A7000520126FDEDC108952091520126FDEBC1B2
:103A80000895411520E5520708F04AC0411520E489
:103A9000520708F026C1483E510528F5403E510521
:103AA00008F0DBC1483A510578F4453A510508F071
:103AB000A3C04130510509F4D0C108F46FC14430AE
:103AC000510508F46BC108954F3B510508F49FC0A0
:103AD000403C510508F462C1CA01880F991F865302
:103AE0009A4FFC01F3C0411520E2520760F44115E2
:103AF00021E0520708F0B1C1403F510508F44EC122
:103B0000CA0190650895411580E3580708F0E1C0A7
:103B1000CA019F70FC01EE0FFF1FE65BF84FD6C095
:103B2000411595E5590708F046C0411524E55207AF
:103B300008F0EFC0411582E5580720F5411591E5E1
:103B4000590708F0D2C0242F237081E090E002C012
:103B5000880F991F2A95E2F79C689A01A4E0369590
:103B60002795AA95E1F72370FC01F22B842F8F7023
:103B7000982F9695969540E2949FC00111248E2B24
:103B80009F2B0895842F86958695BA0163707727B9
:103B90004115534508F0AEC050E2859F90011124B5
:103BA00081E090E002C0880F991F6A95E2F7822BAE
:103BB000932B9C680895411589E5580788F44115B1
:103BC00098E5590708F0AAC0411526E5520708F004
:103BD000E5C0CA018F719927982F882790620895B0
:103BE00041158AE5580708F49EC0CA019056811510
:103BF000904208F4A8C0D2C0453A510509F4D1C09A
:103C0000463A510509F0D0C082E890E40895483A58
:103C1000510509F4CCC0493A510509F4CBC04A3AE0
:103C2000510509F4CAC04B3A510509F4C9C04C3AD0
:103C3000510509F4C8C04B3B510509F4C7C04C3BC2
:103C4000510509F4C6C04D3A510509F4C5C0403BC1
:103C5000510509F4C4C04E3A510509F4C3C04F3AA6
:103C6000510509F4C2C0413B510509F4C1C0423BB2
:103C7000510509F4C0C0433B510509F4BFC0443BA2
:103C8000510509F4BEC0453B510509F4BDC0463B92
:103C9000510509F4BCC0473B510509F4BBC0483B82
:103CA000510509F4BAC0493B510509F4B9C04D3B6F
:103CB000510509F4B8C04E3B510509F4B7C04A3B61
:103CC000510509F4B6C080E094E40895859194917B
:103CD0000895CA01992753FF02C0986C0895906C0B
:103CE0000895CA019F70906A0895942F8827816F64
:103CF000906A089590E2899F9001112481E090E0FC
:103D000002C0880F991F6A95E2F7822B932B9A685D
:103D10000895942F8827846F906A0895942F882798
:103D2000806F906A0895242F2F70206E30E0306AE3
:103D3000CA0144E0969587954A95E1F78F70A901ED
:103D4000582BCA010895252F2F719091520192FF8F
:103D50000FC0352F3871383021F4252F277124609A
:103D600007C0352F3471343019F4252F2B7128609A
:103D700093FF0DC0822F8871883119F4277E24614A
:103D800006C0822F8471843111F42B7E286194FD4A
:103D9000277ECA0199279062922B089580E090E0D7
:103DA000089581E890E4089583E890E4089582EE10
:103DB00094E4089589EE94E408958AEE94E40895D5
:103DC00085EB94E4089586EB94E4089583EB94E402
:103DD000089584EB94E4089587EB94E408958CECC3
:103DE00094E408958DEC94E4089583E895E40895AF
:103DF0008AE895E4089582E995E4089584E995E4D4
:103E0000089581E296E4089583E296E4089584E2B9
:103E100096E4089585E296E4089586E296E408958E
:103E200087E296E408958FE694E4089580E794E4A9
:103E300008958AE296E4089580EE90E0089589E37B
:103E400090E0089589E290E0089585E390E0089578
:103E50008AE290E0089581E390E008958091F7016F
:103E600082958F7009F054C08091F401882309F481
:103E70004FC080912902A091F8016091F2017091E8
:103E8000F3014091F5015091F601B6E08A1709F46B
:103E90003FC090E041155105C1F17F3F11F46F3FE4
:103EA000A1F1B89FF001B99FF00D1124E750FE4F2A
:103EB000218172132AC02081621327C0228121111F
:103EC00024C0238134812417350710F4215031098F
:103ED000241B350B283C3105C0F42091F7012F70CD
:103EE00020612093F70126E0289FF001299FF00D23
:103EF0001124E250FE4F80818F708061808382EFB9
:103F000091E00E94BB050C94DD2701968770BECF1F
:103F100008950E940627E92FE295EF70F0E03297AE
:103F2000EE30F105B0F4ED56FF4F0C94A12C803F1C
:103F300091F018F4803E68F40EC0843F51F40BC039
:103F4000803E48F0813F29F406C093FB882780F922
:103F5000089580E0089581E00895BF92CF92DF92A6
:103F6000EF92FF920F931F93CF93DF93CDB7DEB7FE
:103F700061970FB6F894DEBF0FBECDBF8C0185E010
:103F8000F801DE011D9601900D928A95E1F7D801A6
:103F90003C9111962C9111971296EC9012971396D2
:103FA000CD90DC9014975091F2016091F3018091D3
:103FB000F5019091F601009709F44FC16F3F19F494
:103FC0005F3F09F44AC1B090F401BB2009F4ECC092
:103FD0004091F701C816D90628F0F601E81BF90B45
:103FE000CF0104C0809590958C0D9D1DFF24F39406
:103FF000883C910548F0F12C407F09F09FC082EF8A
:1040000091E00E94BB0521C1842F807F09F044C04C
:10401000621312C0531310C0E1100EC04F70406104
:104020004093F70182EF91E00E94BB058091F70178
:10403000D80115968C932EC0CD2819F12F3F11F47D
:104040003F3FF9F0FE2CE1101CC080912902409105
:10405000F80156E0841709F458C090E0589FF00129
:10406000599FF00D1124E750FE4F6181261306C0C1
:104070006081361303C06281611103C001968770AD
:10408000E9CFFE2CEE2009F415C18091F701816083
:104090008093F701F12C0EC162130AC0531308C0BC
:1040A000E11006C08091F701D80115968C93B0C03D
:1040B0003D872E878D859E850E94891F8823D1F19B
:1040C000EE20C1F12091F701822F82958F7090E050
:1040D000029774F08091F2019091F30198878F8399
:1040E0001986DB86CA862C87CE0107960E94BB05FF
:1040F00086E0F801A2EFB1E001900D928A95E1F718
:104100000E942E1FFF24F394D5C03D872E878D85F6
:104110009E850E940627292F22952F7030E022309D
:1041200031050CF0BBC09F7009F0B5C0805E8830CF
:1041300008F4C0C0C8010E94BB05E4CF621314C0DC
:10414000531312C0E11010C08091F701F80185836C
:10415000C8010E94BB0586E0E2EFF1E0DF011D929D
:104160008A95E9F7FB2CA6C03D872E878D859E8515
:104170000E94891F8823F1F2EE20E1F22091F701DD
:10418000822F82958F7090E002970CF4B1CF8091CE
:10419000F2019091F3019A8389831B82DD82CC82A4
:1041A0002E83CE010196A2CFC816D90638F0C81AC0
:1041B000D90AB8ECCB16D10450F007C08095909581
:1041C0008C0D9D1D883C910510F0F12C3EC0FE2CFD
:1041D000EE2009F4AFCF621327C0531325C02091FE
:1041E000F70120FD18C0822F82958F70482F50E074
:1041F0004115510581F0F80125834F30510541F0FB
:104200008F5F982F9295907F822F8F70892B858357
:10421000C8010E94BB0586E0F801A2EFB1E0019061
:104220000D928A95E1F746C03D872E878D859E8544
:104230000E94891F81115CCF8091F701816080937A
:10424000F701C8010E94BB0535C0E2EFF1E086E04E
:10425000DF011D928A95E9F72DC0EE2009F46ACF9F
:104260003D872E878D859E850E94891FF82E882385
:1042700009F460CF86E0F801A2EFB1E001900D9261
:104280008A95E1F78091F2019091F3010E9406274F
:104290000E942E1F0FC0811149CF0CC02430310560
:1042A0000CF048CF9F7009F441CFF8019581907FC1
:1042B00009F03CCF8F2D61960FB6F894DEBF0FBE8C
:1042C000CDBFDF91CF911F910F91FF90EF90DF90C5
:1042D000CF90BF90089510926302109262020E94E4
:1042E0005F26E1E6F1E086E0DF011D928A95E9F7BD
:1042F0001092670110926C020E94112580E090E0FC
:104300000E94451980E090E00C942F1986E0ECEEB5
:10431000F1E0DF011D928A95E9F70C946B21882367
:1043200041F0809590919C01892380939C010C948D
:104330005F260895882339F090919C01892B809302
:104340009C010C945F260895882309F463C0823889
:1043500069F40E945B1981FF5DC069E38AEE91E018
:104360000E94DE250E945F2669E30EC0833891F427
:104370000E945B1980FF4EC063E58AEE91E00E94C7
:10438000DE250E945F2663E58AEE91E00E94D22539
:104390000C945F26843869F40E945B1982FF3AC04E
:1043A00067E48AEE91E00E94DE250E945F2667E4C2
:1043B000EBCF9CEF980F913A10F4682FE5CF90E285
:1043C000980F983088F4877021E030E0A90102C08E
:1043D000440F551F8A95E2F7CA01809590919C0180
:1043E000892380939C01D4CF9BE5980F933020F4D0
:1043F00080E090E00C94451998E5980F973120F4EF
:1044000080E090E00C942F19803F20F00E948623DA
:104410000C9411250895882309F416C18238B1F44B
:104420000E945B1981FD10C169E38AEE91E00E9450
:10443000DE250E945F262FEF41EE54E021504040E0
:104440005040E1F700C0000069E317C08338D9F499
:104450000E945B1980FDF8C063E58AEE91E00E943E
:10446000DE250E945F268FEF91EE24E08150904080
:104470002040E1F700C0000063E58AEE91E00E9471
:10448000D2250C945F268438B1F40E945B1982FD1A
:10449000DBC067E48AEE91E00E94DE250E945F2681
:1044A0004FEF51EE84E0415050408040E1F700C0B2
:1044B000000067E4E2CF9CEF980F913A30F4682F48
:1044C0008AEE91E00E94DE25DCCF90E2980F9830D2
:1044D00080F4877021E030E0A90102C0440F551F2D
:1044E0008A95E2F7CA0190919C01892B80939C01E7
:1044F000C8CF9BE5980F933070F4853A29F0863A3F
:1045000031F083E890E005C081E890E002C082E8E5
:1045100090E00C94451998E5980F973108F08EC0FB
:10452000883A09F445C0893A09F445C08A3A09F441
:1045300045C08B3A09F445C08C3A09F445C08B3B21
:1045400009F445C08C3B09F445C08D3A09F445C0D7
:10455000803B09F445C08E3A09F445C08F3A09F40E
:1045600045C0813B09F445C0823B09F445C0833B0B
:1045700009F445C0843B09F445C0853B09F445C0B6
:10458000863B09F445C0873B09F445C0883B09F4E4
:1045900045C0893B09F445C08D3B09F445C08E3BBD
:1045A00009F445C08A3B09F445C080E090E044C06E
:1045B00082EE90E041C089EE90E03EC08AEE90E04D
:1045C0003BC085EB90E038C086EB90E035C083EBD4
:1045D00090E032C084EB90E02FC087EB90E02CC0DD
:1045E0008CEC90E029C08DEC90E026C083E891E04F
:1045F00023C08AE891E020C082E991E01DC084E9EF
:1046000091E01AC081E292E017C083E292E014C008
:1046100084E292E011C085E292E00EC086E292E070
:104620000BC087E292E008C08FE690E005C080E70B
:1046300090E002C08AE292E00C942F19803F20F0B3
:104640000E944D240C941125089580919E01089597
:10465000CF93DF93EC010E94D028823011F0843098
:10466000F9F482E08093E9009FEF8091E800915097
:1046700085FD06C085ED8A95F1F700009111F5CF13
:104680008091E80085FF0CC040E050E066E070E0FB
:10469000CE010E9493138091E8008E778093E8000A
:1046A000DF91CF910895CF93DF93EC010E94D02842
:1046B000823011F0843039F581E08093E9008FEF8A
:1046C0009091E800815095FD06C095ED9A95F1F71F
:1046D00000008111F5CF8091E80085FF14C040E013
:1046E00050E068E070E0CE010E9493138091E800F2
:1046F0008E778093E80088E0FE01AFE9B1E0019099
:104700000D928A95E1F7DF91CF910895803F39F4BA
:104710008091640187FF6CC01092640169C0813F81
:1047200029F4809164011816BCF362C09091630172
:10473000823F29F497FF5CC01092630159C0833F08
:1047400019F41916CCF354C0893F41F480916501E6
:1047500018160CF04DC0109265014AC08A3F29F42A
:104760008091650187FF44C0F6CF8B3F39F480917B
:10477000660187FF3DC0109266013AC08C3F29F464
:10478000809166011816BCF333C0843F21F48091F8
:1047900062018E7F17C0853F21F4809162018D7F79
:1047A00011C0863F21F4809162018B7F0BC0873F4F
:1047B00021F480916201877F05C0883F31F48091A8
:1047C00062018F7E8093620113C08D3F21F480913E
:1047D0006C028E7F0BC08E3F21F480916C028D7F26
:1047E00005C08F3F29F480916C028B7F80936C020F
:1047F0008091630181110EC08091640181110AC012
:1048000080916501811106C080916601811102C00D
:1048100010926701089580916C0280FD16C081FDA1
:1048200016C082FD18C080916701882391F08832FC
:1048300090F428E0829FC001112468E270E00E9499
:104840008D2C862F672B29F007C082E0089584E025
:10485000089581E0089588E0089580916C0280FDBC
:1048600014C081FD14C082FD16C0809167018823A9
:1048700081F0843180F422E3829FC001112464E13D
:1048800070E00E948D2C862F08958CE0089589E1B8
:10489000089585E0089582E30895803F21F40E9401
:1048A0002D24819504C0813F29F40E942D248093FA
:1048B00064010895823F21F40E942D24819504C053
:1048C000833F29F40E942D24809363010895893F3A
:1048D00019F40E940B2405C08A3F31F40E940B2476
:1048E00081958093650108958B3F21F40E940B24EC
:1048F000819504C08C3F29F40E940B2480936601AB
:104900000895843F21F480916201816017C0853F42
:1049100021F480916201826011C0863F21F4809170
:10492000620184600BC0873F21F48091620188603E
:1049300005C0883F31F480916201806180936201FB
:1049400008958D3F21F480916C0281600BC08E3FF1
:1049500021F480916C02826005C08F3F29F4809120
:104960006C02846080936C02089578941F920F9279
:104970000FB60F9211248F939F93AF93BF938091A3
:10498000680290916902A0916A02B0916B0201964F
:10499000A11DB11D8093680290936902A0936A02E1
:1049A000B0936B02BF91AF919F918F910F900FBE0B
:1049B0000F901F901895CF92DF92EF92FF920F9376
:1049C0001F932FB7F894409168025091690260914B
:1049D0006A0270916B022FBF6A017B01EE24FF24F3
:1049E0008C0120E030E0C016D106E206F30610F498
:1049F000415051099A01281B390BC9011F910F9190
:104A0000FF90EF90DF90CF9008952FB7F8948091AA
:104A1000680290916902A0916A02B0916B022FBF67
:104A2000089580916B0183FF7EC085E699E00E9426
:104A30001905809162011F928F9380E699E09F9300
:104A40008F930E94B2058EE599E00E94190580912E
:104A50006301282F082E000C330B3F938F938BE5B7
:104A600099E09F938F930E94B20589E599E00E9497
:104A7000190580916401282F082E000C330B3F93F9
:104A80008F9386E599E09F938F930E94B20584E50A
:104A900099E00E94190580916501282F082E000CCD
:104AA000330B3F938F9381E599E09F938F930E94FF
:104AB000B2058FE499E00E94190580916601282FC4
:104AC000082E000C330B3F938F938CE499E09F9357
:104AD0008F930E94B20589E499E00E9419058091A4
:104AE00067011F928F9386E499E09F938F930E94B2
:104AF000B20584E499E00E94190580916C021F922E
:104B00008F9381E499E09F938F930E94B2058EE387
:104B100099E00E9419058DB79EB74C960FB6F89490
:104B20009EBF0FBE8DBFE0915401F09155013097AB
:104B300049F082E0809361010480F581E02D81E6F7
:104B400091E009950E940525909369018093680181
:104B500008951F920F920FB60F9211248F939F9377
:104B6000AF93BF9380915601811113C08091680269
:104B700090916902A0916A02B0916B024196A11DC9
:104B8000B11D8093680290936902A0936A02B0936A
:104B90006B02BF91AF919F918F910F900FBE0F90BD
:104BA0001F901895FC01329608962081261301C0AB
:104BB00010823196E817F907C1F708959C01FC01AE
:104BC00032969FEF80E04191461789F09F3F19F49C
:104BD000411101C0982F8F5F8630A9F79F3F39F0B0
:104BE000F901E90FF11D97FDFA9562830895089583
:104BF00080E090E00E94EA2821E08D3E9E4F09F07F
:104C000020E0822F08956DEE7EEF80E090E00E941C
:104C10000E2960E082E090E00E94F02860E083E0EE
:104C200090E00E94F02810926402109265021092A7
:104C300066021092670260E084E090E00E94F02833
:104C400060E085E090E00E94F02860E086E090E07F
:104C50000E94F0286FEF87E090E00E94F02840E08B
:104C600050E0BA0188E090E00E94022960E08DE007
:104C700090E00E94F02840E050E0BA018FE090E020
:104C80000E94022940E050E0BA0183E190E00C94D8
:104C900002298295982F9C7C392F36953695282F9E
:104CA000237344E0249FC0011124932F982B292FB4
:104CB0002A7A2695892F8575880F822B0895FF9271
:104CC0000F931F93CF93DF939091630280919C0188
:104CD000892B20916202982F922B9093EA01809168
:104CE0006102882391F0892B8093EA01ECEEF1E0D8
:104CF00080E096E09E0F9E1729F021912223D9F3A0
:104D00008F5FF9CF811110926102E0915401F0910F
:104D100055013097B1F10280F381E02D8AEE91E0E8
:104D2000099580916B0182FF2CC080FF04C08CE24A
:104D300099E00E941905CAEED1E006E219E0FC2EC6
:104D400088E0F80E80916B0180FF0BC088811F9274
:104D50008F931F930F930E94B2050F900F900F90A7
:104D60000F902196FC12EECF80916B0180FF09C05D
:104D700084E299E0DF91CF911F910F91FF900C9405
:104D80001905DF91CF911F910F91FF900895CF9258
:104D9000DF92EF92FF920F931F93CF93DF938C01DB
:104DA000C0906402D0906502E0906602F0906702C5
:104DB00080915C0290915D02A0915E02B0915F02D1
:104DC000C82AD92AEA2AFB2ACFE1D0E0D701C601B6
:104DD0000C2E04C0B695A795979587950A94D2F79F
:104DE00080FF06C0B8018C2F0E94BF1C019721F4E0
:104DF000219760F780E001C08C2FDF91CF911F9148
:104E00000F91FF90EF90DF90CF900895CF93DF93B5
:104E1000EC010E94C726BE010E94BF1CDF91CF910A
:104E200008952FE0929F800D1124682F6695669556
:104E30006695982F977085E0689FB001112440E037
:104E400050E080E0FA01E60FF71FE65DFD4F20819C
:104E500030E0092E02C0369527950A94E2F72170BA
:104E60003327042E01C0220F0A94EAF7822B4F5FEA
:104E70005F4F4530510531F708952FE0929F800D27
:104E80001124A82FA695A695A695877051E001C07C
:104E9000550F8A95EAF785E0A89FD001112420E0FC
:104EA00030E070E0F901EA0FFB1FE65DFD4F408145
:104EB000CB01022E02C0969587950A94E2F7817085
:104EC0009927819584278523842780832F5F3F4FEF
:104ED0002530310539F7089560935C0270935D02C7
:104EE00080935E0290935F020C946B210F931F934B
:104EF00041E050E060E070E004C0440F551F661FC1
:104F0000771F8A95D2F7409550956095709580915E
:104F10005C0290915D02A0915E02B0915F028A01F5
:104F20009B01082319232A233B23C901B8011F91A0
:104F30000F910C946C2720916002809582238093BE
:104F40006002982F977069F430E0482F082E000C0B
:104F5000550B2417350729F08595859585950C9473
:104F6000762708950F931F9341E050E060E070E0D2
:104F700004C0440F551F661F771F8A95D2F7809192
:104F80005C0290915D02A0915E02B0915F028A0185
:104F90009B01082B192B2A2B3B2BC901B8011F9110
:104FA0000F910C946C276093640270936502809358
:104FB0006602909367020C946B2180912902909174
:104FC000F801891719F08F5F8770FBCF0895209142
:104FD000E4003091E50095E64091EC00842F81706B
:104FE00040FF22C08091E80080FD1CC08091A90193
:104FF000882391F0853091F08091EB0085FD10C001
:105000004091E4005091E5004217530729F39A01BB
:10501000915011F784E0089582E0089583E00895A7
:1050200081E0089580E008954091E80042FFDECFDE
:1050300008958091AB0187FF11C08091E80082FD47
:1050400005C08091A9018111F8CF11C08091E800BD
:105050008B770BC08091A901882349F08091E800EB
:1050600080FFF8CF8091E8008E778093E800089564
:10507000982F973058F59093E900981739F0709170
:10508000EC002091ED005091F00003C0242F762F0A
:1050900050E021FF19C03091EB003E7F3093EB00D0
:1050A0003091ED003D7F3093ED003091EB003160A9
:1050B0003093EB007093EC002093ED005093F000E0
:1050C0002091EE0027FF07C09F5FD3CF8F708093A2
:1050D000E90081E0089580E008952091B1013091C8
:1050E000B2012617370748F06115710539F4209190
:1050F000E8002E772093E80001C0B90140E0611577
:105100007105A9F12091A901222309F443C025309A
:1051100009F442C02091E80023FD40C02091E8003E
:1051200022FD32C02091E80020FFE9CF4091F3003A
:105130002091F20030E0342BFC01CF0161157105A4
:1051400059F02830310540F481918093F10061508D
:1051500071092F5F3F4FF1CF41E02830310509F051
:1051600040E02091E8002E772093E800C8CF41115D
:10517000C9CF0AC08091A901882361F0853061F010
:105180008091E80083FD0AC08091E80082FFF2CFA1
:1051900080E0089582E0089583E0089581E0089515
:1051A00080916D02811107C08091A901843011F0B6
:1051B00081E0089582E00895F999FECF92BD81BD06
:1051C000F89A992780B50895A6E1B0E044E050E050
:1051D0000C941629A8E1B0E042E050E00C941629A6
:1051E000262FF999FECF92BD81BDF89A019700B4A0
:1051F000021639F01FBA20BD0FB6F894FA9AF99A40
:105200000FBE08950396272F0E94F1280E94F028D0
:10521000252F0E94F128242F0C94F1280196272F86
:105220000E94F1280C94F028DC01CB01FC01F999D3
:10523000FECF06C0F2BDE1BDF89A319600B40D92E2
:1052400041505040B8F708955058BB27AA270E94F4
:105250003C290C94E72A0E94D92A38F00E94E02ABF
:1052600020F039F49F3F19F426F40C94AF2A0EF481
:10527000E095E7FB0C94A92AE92F0E94F82A58F33D
:10528000BA17620773078407950720F079F4A6F52B
:105290000C941A2B0EF4E0950B2EBA2FA02D0B01B7
:1052A000B90190010C01CA01A0011124FF27591B6B
:1052B00099F0593F50F4503E68F11A16F040A22F71
:1052C000232F342F4427585FF3CF469537952795E2
:1052D000A795F0405395C9F77EF41F16BA0B620BE1
:1052E000730B840BBAF09150A1F0FF0FBB1F661F28
:1052F000771F881FC2F70EC0BA0F621F731F841F6B
:1053000048F4879577956795B795F7959E3F08F090
:10531000B0CF9395880F08F09927EE0F9795879552
:1053200008950E94A5290C94E72A0E94E02A58F0CB
:105330000E94D92A40F029F45F3F29F00C94A92A51
:1053400051110C941B2B0C94AF2A0E94F82A68F37D
:105350009923B1F3552391F3951B550BBB27AA272E
:1053600062177307840738F09F5F5F4F220F331F68
:10537000441FAA1FA9F335D00E2E3AF0E0E832D030
:1053800091505040E695001CCAF72BD0FE2F29D033
:10539000660F771F881FBB1F261737074807AB0705
:1053A000B0E809F0BB0B802DBF01FF2793585F4F7A
:1053B0003AF09E3F510578F00C94A92A0C941B2BCF
:1053C0005F3FE4F3983ED4F3869577956795B7955C
:1053D000F7959F5FC9F7880F911D9695879597F967
:1053E0000895E1E0660F771F881FBB1F62177307E0
:1053F0008407BA0720F0621B730B840BBA0BEE1FF5
:1054000088F7E095089529F416F00C94A92A0C94D5
:105410001A2B0C94AF2A0E94002BA8F39638A0F701
:1054200007F80F92E8942BE33AEA48EB5FE70E9413
:10543000AD2B0F920F920F924DB75EB70F920E9455
:10544000632BE2E4F1E00E94B22A4F915F91EF9169
:10545000FF91E595EE1FFF1F49F0FE57E0684427D6
:10546000EE0F441FFA95E1F74195550B0E942D2B45
:105470000F9007FE0C94212B08950E94002B88F0BA
:105480009F5798F0B92F9927B751B0F0E1F0660F08
:10549000771F881F991F1AF0BA95C9F714C0B13049
:1054A00091F00E941A2BB1E008950C941A2B672FEB
:1054B000782F8827B85F39F0B93FCCF38695779578
:1054C0006795B395D9F73EF4909580957095619561
:1054D0007F4F8F4F9F4F0895E89409C097FB3EF48C
:1054E00090958095709561957F4F8F4F9F4F992331
:1054F000A9F0F92F96E9BB279395F69587957795AF
:105500006795B795F111F8CFFAF4BB0F11F460FF6E
:105510001BC06F5F7F4F8F4F9F4F16C0882311F0C6
:1055200096E911C0772321F09EE8872F762F05C0DA
:10553000662371F096E8862F70E060E02AF09A9575
:10554000660F771F881FDAF7880F9695879597F96A
:10555000089597F99F6780E870E060E008959FEFF5
:1055600080EC0895DF93CF931F930F93FF92EF92F8
:10557000DF927B018C01689406C0DA2EEF010E9455
:10558000AA2BFE01E894A59125913591459155915D
:10559000A6F3EF010E943C29FE019701A801DA94CD
:1055A00069F7DF90EF90FF900F911F91CF91DF91FE
:1055B000089500240A941616170618060906089579
:1055C00000240A9412161306140605060895092EDF
:1055D0000394000C11F4882352F0BB0F40F4BF2B4E
:1055E00011F460FF04C06F5F7F4F8F4F9F4F08958E
:1055F00057FD9058440F551F59F05F3F71F0479584
:10560000880F97FB991F61F09F3F79F08795089568
:10561000121613061406551FF2CF4695F1DF08C087
:10562000161617061806991FF1CF869571056105A4
:1056300008940895E894BB2766277727CB0197F94C
:1056400008959B01AC0160E070E080E89FE30C945A
:1056500091290C94A92A0C940C2C0E94002BD8F3AD
:105660009923C9F3940F511DA3F39150504094F026
:1056700059F0882332F0660F771F881F91505040F1
:10568000C1F79E3F51052CF7880F911D9695879580
:1056900097F908955F3FACF0983E9CF0BB27869544
:1056A00077956795B79508F4B1609395C1F7BB0FEF
:1056B00058F711F460FFE8CF6F5F7F4F8F4F9F4F18
:1056C000E3CF0C941B2BFA01DC01AA0FBB1F9B013B
:1056D000AC01BF5728F4222733274427507820C035
:1056E000B75190F4AB2F0024469537952795011CB0
:1056F000A395D2F3002071F0220F331F441FB395FE
:10570000DAF30ED00C94242961307105A0E88A07E1
:10571000B94630F49B01AC0166277727882790783B
:10572000309621F0208331834283538308950E9471
:10573000AA2B0C94E72A0E94D92A38F00E94E02A6A
:1057400020F0952311F00C94A92A0C94AF2A11246F
:105750000C941B2B0E94F82A70F3959FC1F3950FB0
:1057600050E0551F629FF001729FBB27F00DB11DE5
:10577000639FAA27F00DB11DAA1F649F6627B00D75
:10578000A11D661F829F2227B00DA11D621F739F5E
:10579000B00DA11D621F839FA00D611D221F749F6C
:1057A0003327A00D611D231F849F600D211D822FB3
:1057B000762F6A2F11249F5750409AF0F1F08823DA
:1057C0004AF0EE0FFF1FBB1F661F771F881F915007
:1057D0005040A9F79E3F510580F00C94A92A0C94E3
:1057E0001B2B5F3FE4F3983ED4F38695779567953E
:1057F000B795F795E7959F5FC1F7FE2B880F911D31
:105800009695879597F908959F930E941C2C0F9069
:1058100007FCEE5F0C94452C9F3F31F0915020F433
:10582000879577956795B795880F911D969587957C
:1058300097F908950C94AF2A0E94002BD8F3E894AE
:10584000E0E0BB279F57F0F02AED3FE049EC06C0AF
:10585000EE0FBB0F661F771F881F28F0B23A620752
:105860007307840728F0B25A620B730B840BE3951D
:105870009A9572F7803830F49A95BB0F661F771FA0
:10588000881FD2F790480C940E2CEF93E0FF07C0CE
:10589000A2EA2AED3FE049EC5FEB0E943C290E941E
:1058A000E72A0F90039401FC9058EAE6F1E00C948B
:1058B000592C9F938F937F936F93FF93EF939B014B
:1058C000AC010E94972BEF91FF910E94B22A2F9179
:1058D0003F914F915F910C94972B991B79E004C0F5
:1058E000991F961708F0961B881F7A95C9F780951F
:1058F0000895AA1BBB1B51E107C0AA1FBB1FA61717
:10590000B70710F0A61BB70B881F991F5A95A9F768
:1059100080959095BC01CD01089597FB072E16F454
:10592000009407D077FD09D00E94792C07FC05D0A0
:105930003EF4909581959F4F0895709561957F4FA6
:105940000895EE0FFF1F0590F491E02D0994FC01DE
:105950004150504030F001900616D1F73197CF01F9
:0C5960000895882799270895F894FFCF38
:10596C000102252353232823AA0CE00C0101191A48
:10597C001B1C1D1E1F2021223033673666F6F5F4E2
:10598C00F1C6959392919094969734354085226701
:0C599C0006E205C005CD06E606FF060089
:00000001FF
